S01400004D5055363035305F746573742E7372656334
S11300000C94CC000C94E9000C94E9000C94E900E5
S11300100C94E9000C94E9000C94E9000C94E900B8
S11300200C94E9000C94E9000C94E9000C94E900A8
S11300300C94E9000C94E9000C94E9000C94E90098
S11300400C94E9000C94E9000C94E9000C94E90088
S11300500C94E9000C94E9000C94E9000C94E90078
S11300600C94E9000C94E900084AD73B3BCE016E9E
S113007084BCBFFDC12F3D6C74319ABD56833DDAFB
S11300803D00C77F11BED9E4BB4C3E916BAAAABE0A
S1130090000000803F006E616E00696E66000040E3
S11300A07A10F35A00A0724E18090010A5D4E80083
S11300B000E87648170000E40B54020000CA9A3B9B
S11300C0000000E1F5050000809698000000404221
S11300D00F000000A08601000000102700000000AF
S11300E0E803000000006400000000000A000000B3
S11300F000000100000000002C76D888DC674F085F
S113010023DFC1DFAE59E1B1B796E5E3E453C63A64
S1130110E651997696E8E6C28426EB898C9B62EDDB
S1130120407C6FFCEFBC9C9F40F2BAA56FA5F49095
S1130130055A2AF75C936B6CF9676DC11BFCE0E40C
S11301400D47FEF520E6B500D0ED902E0300943562
S113015077050080841E080000204E0A000000C8B5
S11301600C333333330F986E12831141EF8D211406
S1130170893BE65516CFFEE6DB18D1844B381BF7D6
S11301807C1D901DA4BBE424203284725E22810075
S1130190C9F124ECA1E53D2711241FBECFEFD8E01F
S11301A0DEBFCDBF12E0A0E0B1E0EEEDFCE102C0A5
S11301B005900D92A231B107D9F722E0A2E1B2E095
S11301C001C01D92AC34B207E1F70E94CF030C9436
S11301D06D0E0C940000AF92BF92DF92EF92FF92EB
S11301E00F931F93CF93DF93C82FD62EB42ED52F02
S11301F0662349F180ED0E9460048C2F0E949304D1
S113020081ED0E948704ED2CF12C1E141F04ECF4E4
S11302100B2D1D2FC0E0D0E0570181E0A81AB108D2
S1130220AC16BD0629F40E94B004F801808304C012
S11302300E94A504F801808321960F5F1F4FCE15FD
S1130240DF0571F703C0D12C01C0D12C0E948A04B0
S11302508D2DDF91CF911F910F91FF90EF90DF9043
S1130260BF90AF900895AB0161E00E94EB00089548
S1130270FF920F931F93CF93DF93C82FF62E8A011B
S1130280662389F080ED0E9460048C2F0E94930401
S1130290FF2049F0E8010F0D111D89910E9493047C
S11302A0C017D107D1F70E948A04DF91CF911F9123
S11302B00F91FF900895CF93DF931F92CDB7DEB7D0
S11302C06983AE014F5F5F4F61E00E9438010F9078
S11302D0DF91CF910895EF92FF920F931F93CF93E5
S11302E0DF931F92CDB7DEB7442391F1F22E042F92
S11302F0162FE82E1982BE016F5F7F4F0E943301D3
S1130300882311F1612F70E0601B71096F5F7F4FCB
S113031081E090E002C0880F991F0A95E2F70197E7
S1130320062E02C0880F991F0A94E2F72F2D30E0A1
S113033002C0220F331F6A95E2F7F82EF0949981D8
S1130340F92282238F29898369818E2D0E945B0182
S11303500F90DF91CF911F910F91FF90EF9008952F
S113036020E041E066E08BE60E946B0121E043E07F
S113037062E08BE60E946B0120E043E062E08AE1E8
S11303800E946B0164E089E10E945B0123E042E08A
S113039064E08BE10E946B0123E042E064E08CE1C5
S11303A00E946B012FEF86E791E02150804090403E
S11303B0E1F700C000000895EF92FF920F931F939E
S11303C0CF93DF93CDB7DEB72E970FB6F894DEBF89
S11303D00FBECDBF7C018B01AE014F5F5F4F8EE03E
S11303E0FA0111928A95E9F76EE08BE30E94EB0023
S11303F0898190E0982F88272A81822BF7019183A5
S113040080838B8190E0982F88272C81822B938383
S113041082838D8190E0982F88272E81822B95836B
S11304208483898590E0982F88272A85822BF80178
S1130430918380838B8590E0982F88272C85822B4D
S1130440938382838D8590E0982F88272E85822B35
S1130450958384832E960FB6F894DEBF0FBECDBF6E
S1130460DF91CF911F910F91FF90EF9008958F929C
S11304709F92AF92BF92CF92DF92EF92FF920F932F
S11304801F93CF93DF93EC018B0168817981072E51
S1130490000C880B990B0E94300620E030E040E00D
S11304A05AE30E94EB064B015C016C817D81072EAF
S11304B0000C880B990B0E94300620E030E040E0ED
S11304C05AE30E94EB066B017C016A817B81072E53
S11304D0000C880B990B0E94300620E030E040E0CD
S11304E05AE30E94EB06A70196010E945D0520E0F5
S11304F030E044E353E40E94EB062BED3FE049E493
S113050050E40E94BC05F801608371838283938365
S1130510A7019601C501B4010E945D0520E030E009
S113052044E353E40E94EB062BED3FE049E450E43E
S11305300E94BC05F8016483758386839783DF91E9
S1130540CF911F910F91FF90EF90DF90CF90BF90CC
S1130550AF909F908F9008958F929F92AF92BF9289
S1130560CF92DF92EF92FF920F931F93CF93DF937B
S11305708C01EB01FC0162817381072E000C880B56
S1130580990B0E94300623E333E343E851E40E94CD
S1130590BC054B015C01F80164817581072E000CD8
S11305A0880B990B0E94300623E333E343E851E4BC
S11305B00E94BC056B017C01F80160817181072EEA
S11305C0000C880B990B0E94300623E333E343E8C5
S11305D051E40E94BC0520E030E040E05FE30E946B
S11305E0EB069B01AC01688179818A819B810E9421
S11305F0DE04688379838A839B8320E030E040E0D3
S11306005FE3C501B4010E94EB069B01AC016C8160
S11306107D818E819F810E94DE046C837D838E8325
S11306209F8320E030E040E05FE3C701B6010E9411
S1130630EB069B01AC01688579858A859B850E94C0
S1130640DE04688779878A879B87DF91CF911F9122
S11306500F91FF90EF90DF90CF90BF90AF909F905D
S11306608F900895CF93DF93CDB7DEB72C970FB655
S1130670F894DEBF0FBECDBFBE01695F7F4FCE01D0
S113068001960E94DC0169817A81072E000C880B97
S1130690990B0E9430069F938F937F936F9386E00C
S11306A091E09F938F930E94850C6B817C81072E30
S11306B0000C880B990B0E9430069F938F937F93B5
S11306C06F9381E291E09F938F930E94850C6D81DB
S11306D07E81072E000C880B990B0E9430069F9395
S11306E08F937F936F938CE391E09F938F930E94FA
S11306F0850C6F817885072E000C880B990B0E945E
S113070030069F938F937F936F9388E591E09F9337
S11307108F930E94850C69857A85072E000C880BBF
S1130720990B0E9430069F938F937F936F9382E778
S113073091E09F938F930E94850C6B857C85072E97
S1130740000C880B990B0E9430069F938F937F9324
S11307506F938CE891E09F938F930E94850C0FB662
S1130760F894DEBF0FBECDBF6EE172E0CE010196FC
S11307700E94370262E172E0CE0107960E94AC0249
S11307802C960FB6F894DEBF0FBECDBFDF91CF918C
S113079008958EE192E0089582E192E0089560E088
S11307A070E083ED94E00E94FE0B0E94BB0487EA94
S11307B091E00E949B0C0E945A048AEB91E00E94F3
S11307C09B0C0E94B0018CEC91E00E949B0C2FEFDB
S11307D081EE94E0215080409040E1F700C0000099
S11307E002EE11E00F2EFDEEAF2EF1E0BF2EF02D44
S11307F00F2EFAEFCF2EF1E0DF2EF02D0F2EF6E0C4
S1130800EF2EF2E0FF2EF02D0E9432030E94C90366
S1130810EC018B818F938A818F9389818F93888157
S11308208F931F930F930E94850C8F818F938E81DA
S11308308F938D818F938C818F93BF92AF920E94FF
S1130840850C0E94CC03EC018B818F938A818F935A
S113085089818F9388818F931F930F930E94850CB6
S11308608F818F938E818F938D818F938C818F93C2
S1130870DF92CF920E94850C8B858F938A858F930C
S113088089858F9388858F93FF92EF920E94850CC0
S11308902FEF83ED90E3215080409040E1F700C0BA
S11308A000008DB79EB74E960FB6F8949EBF0FBE4C
S11308B08DBFAACF1092B9008CE08093B800089540
S11308C094EA9093BC00ECEBF0E090819923ECF770
S11308D09091B900987F983011F09031A1F48093F1
S11308E0BB0084E88093BC00ECEBF0E080818823BB
S11308F0ECF79091B900987F983139F081E0983401
S113090029F480E0089581E0089580E008950E942C
S11309106004089584E98093BC00ECEBF0E08081EE
S113092084FDFDCF08958093BB0084E88093BC00D0
S1130930ECEBF0E080818823ECF79091B900987F8C
S113094081E0983209F480E0089584EC8093BC003F
S1130950ECEBF0E080818823ECF78091BB000895F4
S113096084E88093BC00ECEBF0E080818823ECF712
S11309708091BB000895E0ECF0E080818260808388
S11309801092C5008FEC8093C400E2ECF0E080810B
S113099086608083E1ECF0E08081806180838081E7
S11309A0886080830895E0ECF0E0908195FFFDCFAE
S11309B08093C60080E090E008955058BB27AA2792
S11309C00E94F5040C94A9060E949B0638F00E942C
S11309D0A20620F039F49F3F19F426F40C94710612
S11309E00EF4E095E7FB0C946B06E92F0E94BA061F
S11309F058F3BA17620773078407950720F079F450
S1130A00A6F50C94DC060EF4E0950B2EBA2FA02D5F
S1130A100B01B90190010C01CA01A0011124FF27A7
S1130A20591B99F0593F50F4503E68F11A16F040A2
S1130A30A22F232F342F4427585FF3CF46953795A1
S1130A402795A795F0405395C9F77EF41F16BA0B66
S1130A50620B730B840BBAF09150A1F0FF0FBB1F14
S1130A60661F771F881FC2F70EC0BA0F621F731F5D
S1130A70841F48F4879577956795B795F7959E3FBA
S1130A8008F0B0CF9395880F08F09927EE0F97954B
S1130A90879508950E949B0660F080E891E009F430
S1130AA09EEF0E94A20628F040E851E071F45EEF48
S1130AB00CC00C9471060C94DC06E92FE0780E94BB
S1130AC0BA0640F3092E052AB1F32617370748075B
S1130AD0590738F00E2E07F8E02569F0E025E064A8
S1130AE00AC0EF6307F8009407FADB01B9019D011E
S1130AF0DC01CA01AD01EF930E94D3050E94A9064F
S1130B000E948D055F91552339F02BED3FE049E4B8
S1130B1050FD49EC0C94DE040895DF93DD27B92FD2
S1130B20BF7740E85FE31616170648075B0718F41B
S1130B30D92F0E94E3069F938F937F936F930E9414
S1130B405807E8E6F0E00E9474060E94A9062F9177
S1130B503F914F915F910E94FE06DD2351F0905822
S1130B60A2EA2AED3FE049EC5FE3D0785D270E94DA
S1130B70F504DF910C94A9060E94D0050C94A906F3
S1130B800E94A20658F00E949B0640F029F45F3FA1
S1130B9029F00C946B0651110C94DD060C9471062B
S1130BA00E94BA0668F39923B1F3552391F3951B78
S1130BB0550BBB27AA2762177307840738F09F5F7A
S1130BC05F4F220F331F441FAA1FA9F335D00E2EE7
S1130BD03AF0E0E832D091505040E695001CCAF754
S1130BE02BD0FE2F29D0660F771F881FBB1F261717
S1130BF037074807AB07B0E809F0BB0B802DBF01EE
S1130C00FF2793585F4F3AF09E3F510578F00C94BC
S1130C106B060C94DD065F3FE4F3983ED4F38695AF
S1130C2077956795B795F7959F5FC9F7880F911DDD
S1130C309695879597F90895E1E0660F771F881FC9
S1130C40BB1F621773078407BA0720F0621B730B7C
S1130C50840BBA0BEE1F88F7E0950895E89409C059
S1130C6097FB3EF490958095709561957F4F8F4FDB
S1130C709F4F9923A9F0F92F96E9BB279395F695F1
S1130C80879577956795B795F111F8CFFAF4BB0F6F
S1130C9011F460FF1BC06F5F7F4F8F4F9F4F16C0D3
S1130CA0882311F096E911C0772321F09EE8872F5D
S1130CB0762F05C0662371F096E8862F70E060E019
S1130CC02AF09A95660F771F881FDAF7880F969592
S1130CD0879597F9089597F99F6780E870E060E039
S1130CE008959FEF80EC0895DF93CF931F930F93A4
S1130CF0FF92EF92DF927B018C01689406C0DA2E9A
S1130D00EF010E94FE06FE01E894A591259135911C
S1130D1045915591A6F3EF010E94F504FE01970158
S1130D20A801DA9469F7DF90EF90FF900F911F917B
S1130D30CF91DF91089500240A9416161706180619
S1130D400906089500240A941216130614060506CB
S1130D500895092E0394000C11F4882352F0BB0F5C
S1130D6040F4BF2B11F460FF04C06F5F7F4F8F4FBF
S1130D709F4F089557FD9058440F551F59F05F3FFA
S1130D8071F04795880F97FB991F61F09F3F79F0A9
S1130D9087950895121613061406551FF2CF46952B
S1130DA0F1DF08C0161617061806991FF1CF8695AD
S1130DB07105610508940895E894BB276627772791
S1130DC0CB0197F908959B01AC0160E070E080E8E5
S1130DD09FE30C94BC050E94FE060C94A9060E9495
S1130DE09B0638F00E94A20620F0952311F00C9483
S1130DF06B060C94710611240C94DD060E94BA064D
S1130E0070F3959FC1F3950F50E0551F629FF00159
S1130E10729FBB27F00DB11D639FAA27F00DB11D72
S1130E20AA1F649F6627B00DA11D661F829F2227FB
S1130E30B00DA11D621F739FB00DA11D621F839F82
S1130E40A00D611D221F749F3327A00D611D231F58
S1130E50849F600D211D822F762F6A2F11249F57A6
S1130E6050409AF0F1F088234AF0EE0FFF1FBB1FA9
S1130E70661F771F881F91505040A9F79E3F510568
S1130E8080F00C946B060C94DD065F3FE4F3983E0F
S1130E90D4F3869577956795B795F795E7959F5F12
S1130EA0C1F7FE2B880F911D9695879597F90895A4
S1130EB09B01AC010C94EB06A0E1B0E0E2E6F7E0A4
S1130EC00C94D90A7C011B016A01FC011782168269
S1130ED0838181FF44C39E012F5F3F4F3901F70196
S1130EE09381F10193FD859193FF81911F018823E3
S1130EF009F431C3853239F493FD859193FF8191CF
S1130F001F01853239F4B70190E00E94490C560163
S1130F106501E5CF10E0512C912CFFE1F915D8F0D3
S1130F208B3279F038F4803279F08332A1F4F92DE0
S1130F30F0612EC08D3261F0803369F4292D216077
S1130F402DC0392D3260932E892D8460982E2AC0AD
S1130F50E92DE86015C097FC2DC020ED280F2A303C
S1130F6088F496FE06C03AE0139F200D1124122F38
S1130F7019C08AE0589E200D1124522EE92DE062FA
S1130F809E2E10C08E3231F496FCE5C2F92DF06429
S1130F909F2E08C08C3621F4292D2068922E02C081
S1130FA0883641F4F10193FD859193FF81911F01EE
S1130FB08111B3CF9BEB980F933020F4992D90615E
S1130FC0805E07C09BE9980F933008F066C1992DA5
S1130FD09F7E96FF16E09F73992E853619F49064D0
S1130FE0992E08C0863621F4392F3068932E02C01A
S1130FF01111115097FE07C01C3350F4442443943C
S1131000410E27E00BC0183038F027E017E005C088
S113101027E09CE3492E02C0212F412C560184E095
S1131020A80EB11CF6016081718182819381042D27
S1131030A3010E94100B6C01F981FC87F0FF02C030
S1131040F3FF06C091FC06C092FE06C000E205C094
S11310500DE203C00BE201C000E08C858C7019F036
S113106001115AC29BC297FE10C04C0CFC85F4FFC0
S113107004C08A81813309F44A94141474F528E075
S1131080241578F588E0482E2CC096FC2AC0812FC0
S113109090E08C159D059CF03CEFC3163FEFD30602
S11310A074F0892D8068982E0AC0E2E0F0E0EC0F1D
S11310B0FD1FE10FF11D8081803319F411501111CE
S11310C0F4CF97FE0EC044244394410E812F90E048
S11310D0C816D9062CF41C1904C04424439401C036
S11310E010E097FE06C01C141D0434F4C6010196DA
S11310F005C085E090E002C081E090E00111019616
S1131100112331F0212F30E02F5F3F4F820F931FC7
S1131110252D30E08217930714F4581A01C0512C7E
S1131120892D897049F4552039F0B70180E290E0A7
S11311300E94490C5A94F7CF002329F0B701802F5D
S113114090E00E94490C93FC09C0552039F0B70186
S113115080E390E00E94490C5A94F7CF97FE4CC06C
S11311604601D7FE02C0812C912CC6018819990929
S1131170F301E80FF91FFE87ED8796012419310961
S1131180388B2F87012F10E01195019511093FEF3E
S11311908316930629F4B7018EE290E00E94490C6D
S11311A0C814D9044CF08F8598898815990524F4BE
S11311B0ED85FE85818101C080E3F1E08F1A9108FD
S11311C02D853E852F5F3F4F3E872D8780169106E4
S11311D02CF0B70190E00E94490CD9CFC814D9046F
S11311E041F49A81963320F4953319F43C8534FF05
S11311F081E3B70190E04EC08A81813319F09C8568
S11312009F7E9C87B70190E00E94490C111105C094
S113121094FC18C085E690E017C0B7018EE290E018
S11312200E94490C1E5F82E001E0080FF301E80F01
S1131230F11D8081B70190E00E94490C802F0113B9
S1131240F3CFE6CF85E490E0B7010E94490CD7FCC8
S113125006C0C114D10441F4EC85E4FF05C0D19467
S1131260C194D1088DE201C08BE2B70190E00E94E5
S1131270490C80E32AE0C216D1042CF08F5FFAE017
S1131280CF1AD108F7CFB70190E00E94490CB701FB
S1131290C601C0960E94490C54C1833631F083378D
S11312A079F0833509F056C020C0560132E0A30E10
S11312B0B11CF6018081898301E010E0630112C052
S11312C05601F2E0AF0EB11CF601C080D18096FE4B
S11312D003C0612F70E002C06FEF7FEFC6010E9470
S11312E0F30B8C01F92DFF7714C0560122E0A20EF6
S11312F0B11CF601C080D18096FE03C0612F70E05E
S113130002C06FEF7FEFC6010E94E80B8C01F92D3C
S1131310F0689F2EF3FD1AC0852D90E00817190779
S1131320A8F4B70180E290E00E94490C5A94F4CFEB
S1131330F60197FC859197FE81916F01B70190E0CA
S11313400E94490C51105A940150110901151105BC
S113135079F7F7C0843611F0893661F5560197FEA6
S113136009C024E0A20EB11CF60160817181828162
S113137093810AC0F2E0AF0EB11CF6016081718165
S1131380072E000C880B990BF92DFF769F2E97FFE3
S113139009C090958095709561957F4F8F4F9F4FB1
S11313A0F0689F2E2AE030E0A3010E94CB0CC82EE7
S11313B0C6183FC0092D853721F40F7E2AE030E09E
S11313C01DC0097F8F3691F018F4883559F0C3C0D9
S11313D0803719F0883711F0BEC0006104FF09C0DE
S11313E0046007C094FE08C0066006C028E030E030
S11313F005C020E130E002C020E132E0560107FFE1
S113140009C084E0A80EB11CF6016081718182815B
S1131410938108C0F2E0AF0EB11CF60160817181C6
S113142080E090E0A3010E94CB0CC82EC6180F7771
S1131430902E96FE0BC0092D0E7FC11650F494FE1B
S11314400AC092FC08C0092D0E7E05C0DC2C092DB3
S113145003C0DC2C01C0D12E04FF0DC0FE01EC0D35
S1131460F11D8081803311F4097E09C002FF06C09A
S1131470D394D39404C0802F867809F0D39403FDC9
S113148011C000FF06C01C2DD51480F4150D1D19C4
S11314900DC0D51458F4B70180E290E00E94490CC5
S11314A0D394F7CFD51410F45D1801C0512C04FF68
S11314B010C0B70180E390E00E94490C02FF17C0FE
S11314C001FD03C088E790E002C088E590E0B70121
S11314D00CC0802F867859F001FF02C08BE201C056
S11314E080E207FD8DE2B70190E00E94490CC1162D
S11314F038F4B70180E390E00E94490C1150F7CF13
S1131500CA94F301EC0DF11D8081B70190E00E94B3
S1131510490CC110F5CF15C0F4E0F51560F584E071
S1131520581A93FE1FC0011127C02C8523FF2AC01F
S113153006E910E0392D3071932EF8018491811160
S113154024C0552009F4E4CCB70180E290E00E9465
S1131550490C5A94F6CFF7018681978126C08FEF04
S11315609FEF23C0B70180E290E00E94490C5A9497
S11315705110F8CFD8CF512CB701802F90E00E94A2
S1131580490CD3CF0AE910E0D5CF91108052B701AE
S113159090E00E94490C0F5F1F4FCFCF23E0251529
S11315A010F483E0BDCF512CC0CF6096E2E10C94DF
S11315B0F50A2F923F924F925F926F927F928F9291
S11315C09F92AF92BF92CF92DF92EF92FF920F93CE
S11315D01F93CF93DF93CDB7DEB7CA1BDB0B0FB6D8
S11315E0F894DEBF0FBECDBF09942A883988488895
S11315F05F846E847D848C849B84AA84B984C8842B
S1131600DF80EE80FD800C811B81AA81B981CE0F21
S1131610D11D0FB6F894DEBF0FBECDBFED01089506
S1131620283008F027E03327DA01990F311D87FDB0
S1131630916000966105710539F432602E5F3D9327
S113164030E32A95E1F708959F3F30F08038710523
S1131650610509F03C5F3C5F3D93913008F0806880
S1131660911DDF93CF931F930F93FF92EF92192F46
S1131670987F9695E92F96959695E90FFF27E85060
S1131680FF4F99273327EE24FF24A701E701059094
S11316900894079428F4360FE71EF81E491F511DBD
S11316A0660F771F881F991F0694A1F7059007946A
S11316B028F4E70EF81E491F561FC11D770F881F17
S11316C0991F661F0694A1F70590079428F4F80E55
S11316D0491F561FC71FD11D880F991F661F771FEB
S11316E00694A1F70590079420F4490F561FC71FCD
S11316F0D81F990F661F771F881F0694A9F7849136
S11317001095177041F0D695C79557954795F7945E
S1131710E7941A95C1F7EEE9F0E0689415901591F5
S113172035916591959105907FE27395E118F10AE1
S1131730430B560BC90BD009C0F7E10CF11E431F34
S1131740561FC91FD01D7EF4703311F48A95E6CF5D
S1131750E894015030F0080F0AF40027021708F447
S1131760202F2395022F7A3328F079E37D932A954D
S1131770E9F710C07D932A9589F6069497956795A5
S1131780379517951794E118F10A430B560BC90BBB
S1131790D00998F023957E9173957A3308F070E31D
S11317A07C932013B8F77E9170617D9330F083951C
S11317B071E37D9370E32A95E1F71124EF90FF9094
S11317C00F911F91CF91DF91992787FD90950895EF
S11317D0FC010590615070400110D8F780959095F8
S11317E08E0F9F1F0895FC016150704001900110FD
S11317F0D8F7809590958E0F9F1F08950F931F9390
S1131800CF93DF93009731F46115710519F480E0EB
S113181090E03AC08B01EC016EE070E081E090E072
S11318200E94290DFC01892B91F380E88383011523
S1131830110571F01387028781E883838091420246
S113184090914302892B21F4F0934302E0934202E6
S11318502097C9F0D187C087838182608383809178
S1131860440290914502892B71F4F0934502E09370
S113187044028091460290914702892B21F4F0930F
S11318804702E0934602CF01DF91CF911F910F9160
S113189008950F931F93CF93DF93FB01238121FDC1
S11318A003C08FEF9FEF2CC022FF16C046815781E3
S11318B0248135814217530744F4A081B1819D01ED
S11318C02F5F3F4F318320838C93268137812F5F95
S11318D03F4F3783268314C08B01EC01FB01008446
S11318E0F185E02D0995892BE1F6D80116968D91A5
S11318F09C911797019617969C938E931697CE01F9
S1131900DF91CF911F910F910895A0E0B0E0EBE833
S1131910FCE00C94E90AAE014B5F5F4FFA01619160
S11319207191AF0180914402909145020E945C073D
S1131930E2E00C94050B0F931F93CF93DF93E09198
S11319404402F0914502238121FF1BC08C01D0E0A9
S1131950C0E0F80181918F016091440270914502C9
S1131960DB011896ED91FC911997882331F00995C4
S1131970892B79F3DFEFCFEFECCF8AE00995892B40
S113198019F08FEF9FEF02C08D2F9C2FDF91CF9125
S11319901F910F910895FA01AA27283051F120319F
S11319A081F1E8946F936E7F6E5F7F4F8F4F9F4FEF
S11319B0AF4FB1E03ED0B4E03CD0670F781F891F31
S11319C09A1FA11D680F791F8A1F911DA11D6A0FFF
S11319D0711D811D911DA11D20D009F468943F91B2
S11319E02AE0269F11243019305D3193DEF6CF01B1
S11319F00895462F4770405D4193B3E00FD0C9F777
S1131A00F6CF462F4F70405D4A3318F0495D31FDE3
S1131A104052419302D0A9F7EACFB4E0A695979536
S1131A20879577956795BA95C9F70097610571050C
S1131A3008959B01AC010A2E069457954795379556
S1131A402795BA95C9F7620F731F841F951FA01DB0
S1131A5008950F931F93CF93DF93869F8001879FF1
S1131A60100D969F100D1124C8010E94450DEC0124
S1131A70009729F0A80160E070E00E94660ECE0194
S1131A80DF91CF911F910F9108950F931F93CF93DF
S1131A90DF938230910510F482E090E0E0914A02F5
S1131AA0F0914B0220E030E0A0E0B0E0309719F173
S1131AB0408151810281138148175907C8F0841766
S1131AC0950769F4109731F012960C9312971396B8
S1131AD01C9327C000934A0210934B0222C0211585
S1131AE0310519F04217530718F49A01BD01EF01AB
S1131AF0DF01F801DBCF21153105F9F0281B390B83
S1131B002430310580F48A819B816115710521F0AF
S1131B10FB019383828304C090934B0280934A0217
S1131B20FE01329644C0FE01E20FF31F81939193AC
S1131B3022503109398328833AC0209148023091D8
S1131B404902232B41F42091020130910301309387
S1131B50490220934802209100013091010121158E
S1131B60310541F42DB73EB7409104015091050170
S1131B70241B350BE0914802F0914902E217F30768
S1131B80A0F42E1B3F0B2817390778F0AC014E5FE9
S1131B905F4F2417350748F04E0F5F1F50934902DB
S1131BA0409348028193919302C0E0E0F0E0CF01BA
S1131BB0DF91CF911F910F910895CF93DF930097F9
S1131BC009F481C0FC01329713821282A0914A0267
S1131BD0B0914B02109781F420813181820F931FC1
S1131BE020914802309149022817390751F5F093A2
S1131BF04902E093480267C0ED0120E030E0CE17CF
S1131C00DF0740F44A815B819E0141155105F1F0E3
S1131C10EA01F5CFD383C28340815181840F951F9C
S1131C20C817D90759F488819981840F951F0296A2
S1131C30918380838A819B819383828321153105DB
S1131C4029F4F0934B02E0934A023DC0E901FB837F
S1131C50EA8349915991C40FD51FEC17FD0761F42C
S1131C6080819181840F951F0296E901998388836D
S1131C70828193819B838A83E0E0F0E012968D91C8
S1131C809C911397009719F0FD01DC01F7CF8D911A
S1131C909C9111979D012E5F3F4F820F931F2091BE
S1131CA04802309149022817390769F4309729F41A
S1131CB010924B0210924A0202C013821282B09315
S1131CC04902A0934802DF91CF910895DC0101C03D
S1111CD06D9341505040E0F70895F894FFCF13
S1131CDE00004C022000416363656C20582D61782E
S1131CEE69732052617744617461203D2025660A30
S1131CFE00416363656C20592D61786973205261CC
S1131D0E7744617461203D2025660A004163636552
S1131D1E6C205A2D61786973205261774461746125
S1131D2E203D2025660A0A004779726F20582D61DE
S1131D3E7869732052617744617461203D20256671
S1131D4E0A004779726F20592D61786973205261A8
S1131D5E7744617461203D2025660A004779726FCD
S1131D6E205A2D6178697320526177446174612021
S1131D7E3D2025660A0A00496E69746961746520FE
S1131D8E5541525420446F6E6500496E6974696101
S1131D9E74652049324320446F6E6500496E697440
S1131DAE69617465204D50553630353020446F6E60
S1131DBE6500526F6C6C203D2025660A00506974D4
S1131DCE6368203D2025660A0A0050697463682002
S1131DDE3D2025660A00596177203D2025660A0AB2
S1051DEE0000EF
S9030000FC
