S01000006E726632346C30312E737265639B
S11300000C9434000C9484020C9451000C94510010
S11300100C9451000C94AC010C9451000C94D50137
S11300200C9451000C9451000C9451000C94510008
S11300300C9451000C9451000C9451000C945100F8
S11300400C9451000C9451000C9451000C945100E8
S11300500C9451000C9451000C9451000C945100D8
S11300600C9451000C94510011241FBECFEFD8E022
S1130070DEBFCDBF13E0A0E0B1E0EEE5F7E102C0E2
S113008005900D92A43EB107D9F723E0A4EEB3E0A6
S113009001C01D92AF3EB207E1F70E94E4010C9447
S11300A0AD0B0C940000ECE7F0E08081886C808359
S11300B0EAE7F0E08081806880830895EAE7F0E071
S11300C0808180648083808184FFFDCF20917900CA
S11300D08091780090E0922B0895EAE7F0E0808127
S11300E08F7780830895EF92FF920F931F93CF939E
S11300F0DF93EC010E945E000E949B067E0185E076
S1130100E80EF11C0FEF10E00E949606B8010E9461
S113011022068993EC16FD06B9F7DF91CF911F9162
S11301200F91FF90EF90089585B78F7E85BF8AB1B8
S11301308F708AB98BB1806F8BB984B1836084B9B5
S113014085B1836085B987B18E6087B988B18E60C7
S113015088B90895F894EDE6F0E08081806F80839B
S11301607894089585B18C7F85B988B1817F88B9E9
S1130170089585B1836085B988B18E6088B9089582
S1130180CF930E94B90091E001C09F5FEFEFE90FA8
S1130190E23081F028F4EE2341F0E13041F020C058
S11301A0E33059F0E43061F01BC028984DC0289A20
S11301B029984AC0299A419847C0419A429844C014
S11301C0429A439889B182958F708B3041F118F42B
S11301D0873071F147C08D30C9F08E3071F042C064
S11301E089B182958F708B30D1F018F4873001F18A
S11301F027C08D3059F08E3019F5F0E0EE0FFF1F57
S1130200EE0FFF1FE65FFE4F10821AC0F0E0EE0F04
S1130210FF1FEE0FFF1FE65FFE4F118211C0F0E0DB
S1130220EE0FFF1FEE0FFF1FE65FFE4F128208C0A6
S1130230F0E0EE0FFF1FEE0FFF1FE65FFE4F13828D
S1130240953008F4A2CF0EC089B182958F708B309F
S113025031F318F4873061F398CF8D30B9F28E30D2
S113026061F293CF0E94B200C9B1C295CF7083E20C
S113027091E00E940E071F92CF9380E391E09F9339
S11302808F930E94F1060F900F900F900F908C2F78
S1130290CF910895CF92DF92EF92FF920F931F9325
S11302A0CF93DF93C12CD12C04E411E01DC0F701DE
S11302B0EC0FFD1F80811F928F931F930F930E9459
S11302C0F10621960F900F900F900F90C430D10536
S11302D071F78AE090E00E9407072FEFC21AD20A52
S11302E035E0C316D10461F0C0E0D0E0C601880F48
S11302F0991F880F991F9C01265F3E4F7901D7CF24
S1130300DF91CF911F910F91FF90EF90DF90CF90ED
S11303100895F894E6EBF0E080818F7D8083E1EB33
S1130320F0E0808187608083E0EBF0E08081816091
S113033080838BE98093B30078940895E8E6F0E035
S113034080818B7F8083DA9A0895DA9AE8E6F0E078
S113035080818460808308951F920F920FB60F925C
S113036011242F933F934F935F936F937F938F93B6
S11303709F93AF93BF93EF93FF938DE491E00E941B
S11303800E0781E08093E403FF91EF91BF91AF9159
S11303909F918F917F916F915F914F913F912F9199
S11303A00F900FBE0F901F9018951F920F920FB6CB
S11303B00F9211248F9382E08093E4038F910F9026
S11303C00FBE0F901F9018952FEF81EE94E02150EF
S11303D080409040E1F700C0000060E070E088E1F8
S11303E096E00E94A6060E9400060E94E7050E946D
S11303F0F2020E94AA000E9494000E9489010E94B5
S1130400FA050E94EB040E94F9020E9453008EE157
S113041091E00E9473000E946D00CEE1D1E00F2EA6
S1130420F3E2EF2EF1E0FF2EF02D02E511E08991C9
S11304301F928F931F930F930E94F1060F900F90BA
S11304400F900F90CE15DF0591F70E94B200109225
S1130450E4030E94A50182E00E94D20500E710E0B7
S1130460CEE9D1E00F2EF6EBEF2EF1E0FF2EF02DCA
S11304708091E403813019F0823089F0F9CF0E9431
S11304809E018BE691E00E940E07F8018081826054
S1130490808380E00E94D2051092E403E9CF87E8CC
S11304A091E00E940E07F80180818D7F80830E9475
S11304B0C0008F3039F0DF93CF930E94F1060F9084
S11304C00F90F5CF0E944A011092E4030E94B900F4
S11304D08BEA91E00E940E070E94A50181EB91E056
S11304E00E940E078091E4031F928F93FF92EF9274
S11304F00E94F1060E94B20082E00E94D2050F9091
S11305000F900F900F90B4CF1F920F920FB60F92CF
S113051011248F9383E08093E4038F910F900FBE97
S11305200F901F9018952A9A08952A980895EF928B
S1130530FF920F931F93CF93DF93C82F7B018A0100
S11305400E9495028C2F0E94F405E114F10469F0D5
S11305501016110654F4E7010E0D1F1D8FEF0E94B3
S1130560F40589930C171D07C9F78FEF0E94F40552
S1130570C82F0E9493028C2FDF91CF911F910F916E
S1130580FF90EF900895DF92EF92FF920F931F93E5
S1130590CF93DF93C82F7B018A010E949502C0325A
S11305A008F4C05E8C2F0E94F405D82EE114F104E7
S11305B061F0101611064CF4E7010E0D1F1D899110
S11305C00E94F4050C171D07D1F70E9493028D2D8C
S11305D0DF91CF911F910F91FF90EF90DF900895DD
S11305E02998089584B18E6284B985B1846185B9EE
S11305F00895AF92BF92CF92DF92EF92FF920F9342
S11306001F93CF93DF9300D000D01F92CDB7DEB7F6
S113061083EC91E00E940E0740E050E060E070E05F
S113062080E00E9497021F928F938EED91E09F933A
S11306308F930E94F10640E050E060E070E081E0BA
S11306400E9497021F928F9381EF91E09F938F9363
S11306500E94F10640E050E060E070E082E00E9419
S113066097021F928F9384E092E09F938F930E944E
S1130670F10640E050E060E070E083E00E94970201
S11306801F928F9387E192E09F938F930E94F106CC
S113069040E050E060E070E084E00E9497021F9226
S11306A08F938AE292E09F938F930E94F10640E039
S11306B050E060E070E085E00E9497021F928F9303
S11306C08DE392E09F938F930E94F10640E050E007
S11306D060E070E086E00E9497021F928F9380E5AD
S11306E092E09F938F930E94F10640E050E060E017
S11306F070E087E00E9497021F928F9383E692E056
S11307009F938F930E94F1060FB6F894DEBF0FBE3D
S1130710CDBF45E050E0BE016F5F7F4F8AE00E948D
S1130720970286E792E09F938F930E94F106FE0161
S113073031967F016E01F6E0CF0ED11C0F900F9021
S113074087010F2EF4E8AF2EF2E0BF2EF02DF80152
S113075081918F011F928F93BF92AF920E94F106F5
S11307600F900F900F900F900C151D0581F78AE0E4
S113077090E00E94070745E050E0BE016F5F7F4FA5
S11307808BE00E94970289E892E09F938F930E94E6
S1130790F1060F900F9087010F2EF4E8AF2EF2E0D0
S11307A0BF2EF02DF80181918F011F928F93BF927C
S11307B0AF920E94F1060F900F900F900F900C15BE
S11307C01D0581F78AE090E00E94070740E050E0B1
S11307D060E070E08CE00E9497021F928F9387E99B
S11307E092E09F938F930E94F10640E050E060E016
S11307F070E08DE00E9497021F928F938AEA92E044
S11308009F938F930E94F10640E050E060E070E017
S11308108EE00E9497021F928F938DEB92E09F933C
S11308208F930E94F10640E050E060E070E08FE0BA
S11308300E9497021F928F9380ED92E09F938F9373
S11308400E94F10645E050E0BE016F5F7F4F80E1FA
S11308500E94970283EE92E09F938F930E94F10689
S11308600FB6F894DEBF0FBECDBF04E812E0F70167
S113087081917F011F928F931F930F930E94F10622
S11308800F900F900F900F90EC14FD0481F78AE005
S113089090E00E94070740E050E060E070E081E1F2
S11308A00E9497021F928F9381EF92E09F938F9300
S11308B00E94F10640E050E060E070E082E10E94B6
S11308C097021F928F9384E093E09F938F930E94EB
S11308D0F10640E050E060E070E083E10E9497029E
S11308E01F928F9387E193E09F938F930E94F10669
S11308F040E050E060E070E084E10E9497021F92C3
S11309008F938AE293E09F938F930E94F10640E0D5
S113091050E060E070E085E10E9497021F928F939F
S11309208DE393E09F938F930E94F10640E050E0A3
S113093060E070E086E10E9497021F928F9380E549
S113094093E09F938F930E94F10640E050E060E0B3
S113095070E087E10E9497021F928F9383E693E0F1
S11309609F938F930E94F10640E050E060E070E0B6
S11309708CE10E9497021F928F9386E793E09F93E6
S11309808F930E94F1060FB6F894DEBF0FBECDBF61
S113099040E050E060E070E08DE10E9497021F9219
S11309A08F9389E893E09F938F930E94F1060F90B1
S11309B00F900F900F900F900F900F900F900F903B
S11309C0DF91CF911F910F91FF90EF90DF90CF9027
S11309D0BF90AF900895CF93DF9300D01F92CDB70F
S11309E0DEB70E94F0020E9493028FE39CE9019714
S11309F0F1F700C000008CE993E00E940E071A8210
S1130A00198241E050E0BE016E5F7F4F81E00E9499
S1130A10C30241E050E0BE016F5F7F4F82E00E945D
S1130A20C3028FE38A83898340E050E060E070E092
S1130A3081E00E94970281608A8340E050E060E098
S1130A4070E082E00E9497028160898341E050E077
S1130A50BE016E5F7F4F81E00E94C30241E050E01F
S1130A60BE016F5F7F4F82E00E94C302198240E0A3
S1130A7050E060E070E080E00E9497028C6089831F
S1130A8041E050E0BE016F5F7F4F80E00E94C302EF
S1130A908FE1898341E050E0BE016F5F7F4F84E0C6
S1130AA00E94C30283E0898341E050E0BE016F5F8E
S1130AB07F4F0E94C30240E050E060E070E083E0BA
S1130AC00E9497028E5F482F50E06EE171E080E152
S1130AD00E94C30240E050E060E070E083E00E94C6
S1130AE097028E5F482F50E06EE171E08AE00E9429
S1130AF0C30240E050E060E070E080E00E949702B2
S1130B008E7F8A8341E050E0BE016E5F7F4F80E0BC
S1130B100E94C3028CE48A8341E050E0BE016E5F10
S1130B207F4F85E00E94C30240E050E060E070E047
S1130B3086E00E949702877F8B8341E050E0BE01EC
S1130B406D5F7F4F86E00E94C30240E050E060E0AA
S1130B5070E081EE0E94C30240E050E060E070E08B
S1130B6082EE0E94C30240E050E060E070E080E06A
S1130B700E94970282608B8341E050E0BE016D5F6A
S1130B807F4F80E00E94C3028FE39CE90197F1F755
S1130B9000C000000F900F900F90DF91CF91089547
S1130BA088950895CF93C82F82ED93E00E940E0795
S1130BB093B78C2F880F892B83BF83B7816083BF42
S1130BC00E94D00583B78E7F83BFCF910895259A65
S1130BD0239A229A24988FEF85B98CB580648CBDB2
S1130BE08CB580618CBD08958EBD0DB407FEFDCF1C
S1130BF08EB508951092B9008CE08093B8000895E2
S1130C00E0ECF0E08081826080831092C50080E196
S1130C108093C400E2ECF0E0808186608083E1ECA4
S1130C20F0E0808180618083808188608083089582
S1130C30E0ECF0E0908195FFFDCF8093C60080E06A
S1130C4090E0089597FB072E16F4009407D077FDE3
S1130C5009D00E94360607FC05D03EF49095819594
S1130C609F4F0895709561957F4F0895AA1BBB1BF4
S1130C7051E107C0AA1FBB1FA617B70710F0A61B98
S1130C80B70B881F991F5A95A9F780959095BC01B9
S1130C90CD0108958F929F92AF92BF92CF92DF922F
S1130CA0EF92FF92CF93DF93EC01688179818A817F
S1130CB09B81611571058105910521F464E279ED4B
S1130CC08BE597E02DE133EF41E050E00E94130BF8
S1130CD049015A019B01AC01A7EAB1E40E94320B1D
S1130CE06B017C01ACEEB4EFA50194010E94400BB2
S1130CF0DC01CB018C0D9D1DAE1DBF1DB7FF03C0D4
S1130D000197A109B04888839983AA83BB839F77FD
S1130D10DF91CF91FF90EF90DF90CF90BF90AF9095
S1130D209F908F9008950E944A06089580E091E074
S1130D300E944A060895A0E0B0E0809300019093D9
S1130D400101A0930201B093030108950F931F932F
S1130D50CF93DF93009731F46115710519F480E0A6
S1130D6090E03AC08B01EC016EE070E081E090E02D
S1130D700E941F09FC01892B91F380E883830115EC
S1130D80110571F01387028781E883838091E5035D
S1130D909091E603892B21F4F093E603E093E503B5
S1130DA02097C9F0D187C087838182608383809133
S1130DB0E7039091E803892B71F4F093E803E0933F
S1130DC0E7038091E9039091EA03892B21F4F093DE
S1130DD0EA03E093E903CF01DF91CF911F910F91D3
S1130DE00895A0E0B0E0E7EFF6E00C94550BAE01F7
S1130DF04B5F5F4FFA0161917191AF018091E703FD
S1130E009091E8030E943E07E2E00C94710B60911C
S1130E10E7037091E8030E94790A08950F931F93E2
S1130E20CF93DF93E091E703F091E803238121FF5F
S1130E301BC08C01D0E0C0E0F80181918F0160916A
S1130E40E7037091E803DB011896ED91FC91199783
S1130E50882331F00995892B79F3DFEFCFEFECCFBD
S1130E608AE00995892B19F08FEF9FEF02C08D2F2F
S1130E709C2FDF91CF911F910F910895ABE0B0E0CB
S1130E80E4E4F7E00C94450B6C017B018A01FC015E
S1130E9017821682838181FFCCC1CE0101963C0169
S1130EA0F6019381F70193FD859193FF81917F0171
S1130EB0882309F4BAC1853239F493FD859193FFEF
S1130EC081917F01853229F4B60190E00E94790A6C
S1130ED0E7CF912C212C312CFFE1F315D8F08B3284
S1130EE079F038F4803279F08332A1F4232D206133
S1130EF01DC08D3261F0803369F4232D216016C04A
S1130F00832D8260382EE32DE4603E2E2AC0F32D1B
S1130F10F8601DC037FC2DC020ED280F2A3040F0AA
S1130F208E32B9F436FC81C1232D2064322E19C0CF
S1130F3036FE06C08AE0989E200D1124922E11C020
S1130F40EAE02E9E200D1124222EF32DF0623F2E76
S1130F5008C08C3621F4832D8068382E02C0883670
S1130F6041F4F70193FD859193FF81917F018111F4
S1130F70B3CF982F9F7D9554933028F40C5F1F4F67
S1130F809FE399830DC0833631F0833771F0833545
S1130F9009F059C021C0F801808189830E5F1F4F79
S1130FA088248394912C530113C02801F2E04F0E3E
S1130FB0511CF801A080B18036FE03C0692D70E099
S1130FC002C06FEF7FEFC5010E946E0A4C018201DF
S1130FD0F32DFF773F2E16C0280122E0420E511C4C
S1130FE0F801A080B18036FE03C0692D70E002C014
S1130FF06FEF7FEFC5010E945C0A4C01F32DF0688E
S11310003F2E820133FC1BC0822D90E08816990686
S1131010B0F4B60180E290E00E94790A2A94F4CFF9
S1131020F50137FC859137FE81915F01B60190E0AF
S11310300E94790A21102A9421E0821A91088114CD
S1131040910471F7E8C0843611F0893641F5F8014E
S113105037FE07C060817181828193810C5F1F4FCD
S113106008C060817181072E000C880B990B0E5FFC
S11310701F4FF32DFF763F2E97FF09C09095809563
S1131080709561957F4F8F4F9F4FF0683F2E2AE0F8
S113109030E0A3010E94B50A882E861845C0853722
S11310A031F4232D2F7EB22E2AE030E025C0932D7B
S11310B0997FB92E8F36C1F018F4883579F0B5C010
S11310C0803719F0883721F0B0C0E92FE061BE2ED7
S11310D0B4FE0DC0FB2DF460BF2E09C034FE0AC05F
S11310E0292F2660B22E06C028E030E005C020E19A
S11310F030E002C020E132E0F801B7FE07C06081B1
S11311007181828193810C5F1F4F06C06081718160
S113111080E090E00E5F1F4FA3010E94B50A882E65
S11311208618FB2DFF773F2E36FE0DC0232D2E7F14
S1131130A22E891458F434FE0BC032FC09C0832D4E
S11311408E7EA82E05C0B82CA32C03C0B82C01C0D9
S1131150B92CA4FE0FC0FE01E80DF11D808180337F
S113116021F49A2D997EA92E09C0A2FE06C0B3943B
S1131170B39404C08A2D867809F0B394A3FC11C0FB
S1131180A0FE06C0B21488F4280C922C9B180EC042
S1131190B21460F4B60180E290E00E94790AB3943C
S11311A0F7CFB21418F42B1802C0982C212CA4FEEB
S11311B010C0B60180E390E00E94790AA2FE17C035
S11311C0A1FC03C088E790E002C088E590E0B60186
S11311D00CC08A2D867859F0A1FE02C08BE201C0B2
S11311E080E2A7FC8DE2B60190E00E94790A89149E
S11311F038F4B60180E390E00E94790A9A94F7CF1C
S11312008A94F301E80DF11D8081B60190E00E94FB
S1131210790A8110F5CF222009F442CEB60180E28A
S113122090E00E94790A2A94F6CFF601868197818C
S113123002C08FEF9FEF2B96E2E10C94610B0F93AA
S11312401F93CF93DF93869F8001879F100D969FF6
S1131250100D1124C8010E943B09EC01009729F0EC
S1131260A80160E070E00E94670ACE01DF91CF918F
S11312701F910F9108950F931F93CF93DF938230A3
S1131280910510F482E090E0E091ED03F091EE031B
S113129020E030E0A0E0B0E0309719F140815181C6
S11312A00281138148175907C8F08417950769F418
S11312B0109731F012960C93129713961C9327C033
S11312C00093ED031093EE0322C02115310519F0AC
S11312D04217530718F49A01BD01EF01DF01F80129
S11312E0DBCF21153105F9F0281B390B24303105EA
S11312F080F48A819B816115710521F0FB01938340
S1131300828304C09093EE038093ED03FE01329632
S113131044C0FE01E20FF31F8193919322503109DF
S1131320398328833AC02091EB033091EC03232BBB
S113133041F420910601309107013093EC0320938E
S1131340EB0320910401309105012115310541F48D
S11313502DB73EB74091080150910901241B350B6C
S1131360E091EB03F091EC03E217F307A0F42E1BDA
S11313703F0B2817390778F0AC014E5F5F4F2417F5
S1131380350748F04E0F5F1F5093EC034093EB0377
S11313908193919302C0E0E0F0E0CF01DF91CF911F
S11313A01F910F910895CF93DF93009709F481C0A3
S11313B0FC01329713821282A091ED03B091EE03E7
S11313C0109781F420813181820F931F2091EB03C8
S11313D03091EC032817390751F5F093EC03E093AF
S11313E0EB0367C0ED0120E030E0CE17DF0740F4E7
S11313F04A815B819E0141155105F1F0EA01F5CF67
S1131400D383C28340815181840F951FC817D907A4
S113141059F488819981840F951F02969183808362
S11314208A819B81938382832115310529F4F0936A
S1131430EE03E093ED033DC0E901FB83EA834991A8
S11314405991C40FD51FEC17FD0761F48081918178
S1131450840F951F0296E901998388838281938181
S11314609B838A83E0E0F0E012968D919C91139720
S1131470009719F0FD01DC01F7CF8D919C91119734
S11314809D012E5F3F4F820F931F2091EB033091FC
S1131490EC032817390769F4309729F41092EE0306
S11314A01092ED0302C013821282B093EC03A09356
S11314B0EB03DF91CF910895FC01059061507040DA
S11314C00110D8F7809590958E0F9F1F0895DC0129
S11314D001C06D9341505040E0F70895FC01615004
S11314E0704001900110D8F7809590958E0F9F1F42
S11314F008950F931F93CF93DF93FB01238121FD65
S113150003C08FEF9FEF2CC022FF16C04681578186
S1131510248135814217530744F4A081B1819D0190
S11315202F5F3F4F318320838C93268137812F5F38
S11315303F4F3783268314C08B01EC01FB010084E9
S1131540F185E02D0995892BE1F6D80116968D9148
S11315509C911797019617969C938E931697CE019C
S1131560DF91CF911F910F910895FA01AA27283096
S113157051F1203181F1E8946F936E7F6E5F7F4F5C
S11315808F4F9F4FAF4FB1E03ED0B4E03CD0670FD8
S1131590781F891F9A1FA11D680F791F8A1F911D2B
S11315A0A11D6A0F711D811D911DA11D20D009F47B
S11315B068943F912AE0269F11243019305D3193BD
S11315C0DEF6CF010895462F4770405D4193B3E0A6
S11315D00FD0C9F7F6CF462F4F70405D4A3318F04D
S11315E0495D31FD4052419302D0A9F7EACFB4E0FE
S11315F0A6959795879577956795BA95C9F70097B6
S11316006105710508959B01AC010A2E0694579556
S1131610479537952795BA95C9F7620F731F841FAD
S1131620951FA01D0895052E97FB1EF400940E949B
S11316302A0B57FD07D00E947C0B07FC03D04EF405
S11316400C942A0B50954095309521953F4F4F4F60
S11316505F4F089590958095709561957F4F8F4F5A
S11316609F4F08950E949E0BA59F900DB49F900DCF
S1131670A49F800D911D11240895B7FF0C94320B83
S11316800E94320B821B930B08952F923F924F922C
S11316905F926F927F928F929F92AF92BF92CF92FE
S11316A0DF92EF92FF920F931F93CF93DF93CDB707
S11316B0DEB7CA1BDB0B0FB6F894DEBF0FBECDBF7F
S11316C009942A88398848885F846E847D848C8450
S11316D09B84AA84B984C884DF80EE80FD800C8159
S11316E01B81AA81B981CE0FD11D0FB6F894DEBF3C
S11316F00FBECDBFED010895A1E21A2EAA1BBB1B9C
S1131700FD010DC0AA1FBB1FEE1FFF1FA217B307C9
S1131710E407F50720F0A21BB30BE40BF50B661FDF
S1131720771F881F991F1A9469F7609570958095A3
S113173090959B01AC01BD01CF010895A29FB0011A
S1131740B39FC001A39F700D811D1124911DB29FF1
S1111750700D811D1124911D0895F894FFCF92
S113175E010000000000EF0320000101010101015E
S113176E0101010101010101010101010101123413
S113177E567890656E645F6B65795F7363616E0016
S113178E70696E745F737461747573203A202530BA
S113179E32580A0025640030210031210069737229
S11317AE21007472616E6365697665725F6164644B
S11317BE72203A2025303278200A0050696E5F4339
S11317CE686E6167655F696E746572727570745F59
S11317DE6F63637572210054696D65725F4F766530
S11317EE725F466C6F775F6F636375722100646F0F
S11317FE5F7363616E6E696E670D00686967682159
S113180E006C6F7721007068617365203A2025643F
S113181E200A000A0A6E524632344C303120526588
S113182E676973746572732056616C756500202048
S113183E2020434F4E464947203A20253032580A3D
S113184E002020202020454E5F4141203A202530A3
S113185E32580A0020454E5F525841444452203AB1
S113186E20253032580A00202053455455505F41EC
S113187E57203A20253032580A0053455455505FAC
S113188E52455452203A20253032580A0020202046
S113189E202052465F4348203A20253032580A0011
S11318AE202052465F5345545550203A202530325D
S11318BE580A0020202020535441545553203A20D6
S11318CE253032580A0052585F414444525F50301A
S11318DE203A2000253032580052585F4144445279
S11318EE5F5031203A200052585F414444525F50B9
S11318FE32203A20253032580A0052585F4144446F
S113190E525F5033203A20253032580A0052585F25
S113191E414444525F5034203A20253032580A0054
S113192E52585F414444525F5035203A202530329C
S113193E580A0020202054585F41444452203A2033
S113194E002052585F5057445F5030203A202530C3
S113195E32580A002052585F5057445F5031203A93
S113196E20253032580A002052585F5057445F5099
S113197E32203A20253032580A002052585F5057F0
S113198E445F5033203A20253032580A00205258F2
S113199E5F5057445F5034203A20253032580A00A5
S11319AE2052585F5057445F5035203A202530322C
S11319BE580A004649464F5F5354415455533A20F2
S11319CE253032580A00202020202044594E5044FD
S11319DE203A20253032580A002020204645415412
S11319EE555245203A20253032580A006F6B00427A
S11319FE55463A2025640A00737461747573203A4F
S1131A0E2025640A006E6F726D61726C004D6178F0
S1131A1E696D756D206E756D626572206F662054EA
S1131A2E7800456E74657220736C656570204D6F19
S1071A3E64650000D7
S9030000FC
