:100000000C94CC000C94E9000C94E9000C94E900E9
:100010000C94E9000C94E9000C94E9000C94E900BC
:100020000C94E9000C94E9000C94E9000C94E900AC
:100030000C94E9000C94E9000C94E9000C94E9009C
:100040000C94E9000C94E9000C94E9000C94E9008C
:100050000C94E9000C94E9000C94E9000C94E9007C
:100060000C94E9000C94E900084AD73B3BCE016EA2
:1000700084BCBFFDC12F3D6C74319ABD56833DDAFF
:100080003D00C77F11BED9E4BB4C3E916BAAAABE0E
:10009000000000803F006E616E00696E66000040E7
:1000A0007A10F35A00A0724E18090010A5D4E80087
:1000B00000E87648170000E40B54020000CA9A3B9F
:1000C000000000E1F5050000809698000000404225
:1000D0000F000000A08601000000102700000000B3
:1000E000E803000000006400000000000A000000B7
:1000F00000000100000000002C76D888DC674F0863
:1001000023DFC1DFAE59E1B1B796E5E3E453C63A68
:10011000E651997696E8E6C28426EB898C9B62EDDF
:10012000407C6FFCEFBC9C9F40F2BAA56FA5F49099
:10013000055A2AF75C936B6CF9676DC11BFCE0E410
:100140000D47FEF520E6B500D0ED902E0300943566
:1001500077050080841E080000204E0A000000C8B9
:100160000C333333330F986E12831141EF8D21140A
:10017000893BE65516CFFEE6DB18D1844B381BF7DA
:100180007C1D901DA4BBE424203284725E22810079
:10019000C9F124ECA1E53D2711241FBECFEFD8E023
:1001A000DEBFCDBF11E0A0E0B1E0E6EFFEE102C0AE
:1001B00005900D92A83AB107D9F721E0A8EAB1E07D
:1001C00001C01D92AA3CB207E1F70E94EB000C941B
:1001D000790F0C94000060E070E086E795E00E94E3
:1001E0000A0D0E945E0586E091E00E94A70D0E9424
:1001F000010583E191E00E94A70D0E945B018FE160
:1002000091E00E94A70D0E949D042FEF83ED90E3E3
:10021000215080409040E1F700C00000F4CFCF9320
:10022000DF93D82FC62F80ED0E9407058D2F0E94E7
:1002300038058C2F0E9438050E943005DF91CF9140
:100240000895FF920F931F93CF93DF93662359F185
:100250008A01D62FC82F80ED0E9407058C2F0E949F
:10026000380581ED0E942D05F12CC0E017C0F394F4
:100270002C2F30E08D2F90E001972817390739F4A3
:100280000E945405F801EC0FF11D808306C00E9406
:100290004A05F801EC0FF11D8083CF5FCD1738F3CD
:1002A0000E94300501C0F12C8F2DDF91CF911F915D
:1002B0000F91FF9008958BE792E90197F1F700C045
:1002C000000060E08BE60E940F0161E08BE60E9477
:1002D0000F0160E08AE10E940F0164E089E10E9461
:1002E0000F0163E08BE10E940F0163E08CE10E944B
:1002F0000F01E4EBF1E0108211821282138214826A
:100300001582168217821086118612861386E8EAF5
:10031000F1E01082118212821382148215821682F9
:10032000178210861186128613860895EF92FF9227
:100330000F931F93CF93DF93CDB7DEB72E970FB6F2
:10034000F894DEBF0FBECDBF7C018B01AE014F5FC5
:100350005F4F8EE0FA0111928A95E9F76EE08BE328
:100360000E9421018A8190E0F701918380838C8132
:1003700090E0938382838E8190E0958384838A8545
:1003800090E0F801918380838C8590E09383828351
:100390008E8590E0958384832E960FB6F894DEBF09
:1003A0000FBECDBFDF91CF911F910F91FF90EF90C6
:1003B0000895AF92BF92CF92DF92EF92FF920F9388
:1003C0001F93CF93DF93CDB7DEB72C970FB6F8947A
:1003D000DEBF0FBECDBF5C016B017A0189010E94B7
:1003E000960183EF91E00197F1F700C00000F5015D
:1003F0002081318189819A81280F391FF60140813E
:1004000051818F819885480F591F369527953695CC
:10041000279536952795A5ECB0E20E94D60B9295CC
:1004200082958F7089279F708927F7019183808338
:1004300093838283958384839A0136952795369595
:100440002795369527950E94D60B929582958F70A9
:1004500089279F708927F801918380839383828302
:10046000958384832C960FB6F894DEBF0FBECDBF64
:10047000DF91CF911F910F91FF90EF90DF90CF9080
:10048000BF90AF9008952F923F924F925F926F92DC
:100490007F928F929F92AF92BF92CF92DF92EF9214
:1004A000FF920F931F93CF93DF93CDB7DEB72B97B8
:1004B0000FB6F894DEBF0FBECDBF98878F837E83C3
:1004C0006D832A011901FC0160817181072E000CE6
:1004D000880B990B0E94D20620E030E040E05AE3FE
:1004E0000E948D074B015C01EF81F8856281738169
:1004F000072E000C880B990B0E94D20620E030E0FA
:1005000040E05AE30E948D0769837A838B839C8342
:10051000EF81F88564817581072E000C880B990B9B
:100520000E94D20620E030E040E05AE30E948D07AE
:100530006B017C0129813A814B815C81CA01B9013F
:100540000E948D076F83788789879A87A701960114
:10055000C701B6010E948D076B017C01A7019601BE
:100560006F81788589859A850E9480050E940008A0
:100570009B01AC01C501B40190580E94FF0520E029
:1005800030E044E353E40E948D072BED3FE049E463
:1005900050E40E945E06662E7F838B87792E472F5C
:1005A000382F862F942FA32FB72DF20180839183AC
:1005B000A283B383A5019401C501B4010E948D07F4
:1005C0004B015C01A5019401C701B6010E948005A1
:1005D0000E9400089B01AC0169817A818B819C811A
:1005E0000E94FF0520E030E044E353E40E948D07C1
:1005F0002BED3FE049E450E40E945E06262F372FA2
:10060000462F572F682F792FF20144835583668335
:10061000778310861186128613861F921F921F926F
:100620001F929F938F933F932F937F92FB85FF930E
:100630008F818F936F9280E391E09F938F930E94BD
:10064000910DED81FE8160817181072E000C880B78
:10065000990B0E94D20623E333E343E851E40E945E
:100660005E0669837A838B839C83ED81FE81628140
:100670007381072E000C880B990B0E94D20623E38E
:1006800033E343E851E40E945E064B015C01ED81D7
:10069000FE8164817581072E000C880B990B0E94E6
:1006A000D20623E333E343E851E40E945E066B0184
:1006B0007C012FE632E143E85AE369817A818B813C
:1006C0009C810E948D07F1012081318142815381FB
:1006D0000E94800569837D83782E692E472F862F9F
:1006E000942FA72DB62DF10180839183A283B3832C
:1006F0002FE632E143E85AE3C501B4010E948D07B9
:10070000F10124813581468157810E948005B62EF2
:10071000A72E982E892E862F9A2DA92DB82DF1015E
:1007200084839583A683B7832FE632E143E85AE3B7
:10073000C701B6010E948D07F101208531854285F0
:1007400053850E948005262F372F462F572F682F5D
:10075000792FF10140875187628773879F938F9329
:100760003F932F938F929F92AF92BF926F927F92FF
:10077000FD81FF9389818F9388E591E09F938F930B
:100780000E94910DF801C080D180E280F380F101D8
:10079000608171818281938120E030E040E850E403
:1007A0000E948D072FE632E143E85AE30E948D074D
:1007B0009B01AC01C701B6010E9480052BE734E123
:1007C0004EE65FE30E948D076B017C01F2016081C0
:1007D00071818281938129E23CE54FE85DE30E94CB
:1007E0008D079B01AC01C701B6010E94800569839A
:1007F0007D83F82EE92E472F862F942FAF2DBE2D07
:10080000F80180839183A283B38384809580A6803E
:10081000B780F101648175818681978120E030E0A5
:1008200040E850E40E948D072FE632E143E85AE3A6
:100830000E948D079B01AC01C501B4010E94800597
:100840002BE734E14EE65FE30E948D074B015C012C
:10085000F201648175818681978129E23CE54FE848
:100860005DE30E948D079B01AC01C501B4010E94AC
:100870008005D62EC72EB82EA92E862F9C2DAB2DE7
:10088000BA2DF80184839583A683B783F10160852F
:1008900071858285938520E030E040E850E40E9435
:1008A0008D072FE632E143E85AE30E948D079B0152
:1008B000AC01F80160857185828593850E947F0572
:1008C000262F372F462F572F682F792FF801408773
:1008D0005187628773879F938F933F932F93AF9234
:1008E000BF92CF92DF92EF92FF92FD81FF938981B9
:1008F0008F938FE791E09F938F930E94910D0FB696
:10090000F894DEBF0FBECDBF2B960FB6F894DEBFB6
:100910000FBECDBFDF91CF911F910F91FF90EF9050
:10092000DF90CF90BF90AF909F908F907F906F900F
:100930005F904F903F902F9008950F931F93CF9308
:10094000DF93CDB7DEB7EC970FB6F894DEBF0FBEDE
:10095000CDBF9E01295C3F4FAE014F5C5F4FBE0192
:10096000655D7F4FCE0185960E94D90129A93AA9DC
:100970008DA19EA1821B930B9EA38DA32BA93CA9A5
:100980008FA198A5821B930B98A78FA32DA93EA991
:1009900089A59AA5821B930B9AA789A72FA938AD81
:1009A0008BA59CA5821B930B9CA78BA729AD3AAD69
:1009B0008DA59EA5821B930B9EA78DA72BAD3CAD4D
:1009C0008FA598A9821B930B98AB8FA78E01075E0A
:1009D0001F4F9E01235F3F4FAE014F5F5F4FBE0130
:1009E000655D7F4FCE0185960E944302EC960FB65F
:1009F000F894DEBF0FBECDBFDF91CF911F910F9155
:100A000008951092B9008CE08093B800089594EA9C
:100A10009093BC009091BC009923E4F79091B900A9
:100A2000987F983011F0903191F48093BB0084E866
:100A30008093BC008091BC008823E4F78091B900CA
:100A4000887F883131F0883431F480E0089581E086
:100A5000089580E0089581E008950E9407050895B3
:100A600084E98093BC008091BC0084FDFCCF089594
:100A70008093BB0084E88093BC008091BC008823F5
:100A8000E4F78091B900887F883211F081E0089501
:100A900080E0089584EC8093BC008091BC008823A2
:100AA000E4F78091BB00089584E88093BC008091B6
:100AB000BC008823E4F78091BB000895E0ECF0E0EF
:100AC0008081826080831092C5008FEC8093C40087
:100AD000E2ECF0E0808186608083E1ECF0E08081F0
:100AE0008061808380818860808308959091C000B8
:100AF00095FFFCCF8093C60080E090E008955058A9
:100B0000BB27AA270E9497050C944B070E943D071C
:100B100038F00E94440720F039F49F3F19F426F47E
:100B20000C9413070EF4E095E7FB0C940D07E92FE6
:100B30000E945C0758F3BA1762077307840795078A
:100B400020F079F4A6F50C947E070EF4E0950B2EB8
:100B5000BA2FA02D0B01B90190010C01CA01A0010F
:100B60001124FF27591B99F0593F50F4503E68F16A
:100B70001A16F040A22F232F342F4427585FF3CFAB
:100B8000469537952795A795F0405395C9F77EF47C
:100B90001F16BA0B620B730B840BBAF09150A1F0C5
:100BA000FF0FBB1F661F771F881FC2F70EC0BA0F4B
:100BB000621F731F841F48F4879577956795B795D3
:100BC000F7959E3F08F0B0CF9395880F08F09927CE
:100BD000EE0F9795879508950E943D0760F080E895
:100BE00091E009F49EEF0E94440728F040E851E0AC
:100BF00071F45EEF0CC00C9413070C947E07E92F80
:100C0000E0780E945C0740F3092E052AB1F326170D
:100C100037074807590738F00E2E07F8E02569F026
:100C2000E025E0640AC0EF6307F8009407FADB01EF
:100C3000B9019D01DC01CA01AD01EF930E94750667
:100C40000E944B070E942F065F91552339F02BED30
:100C50003FE049E450FD49EC0C9480050895DF9392
:100C6000DD27B92FBF7740E85FE316161706480760
:100C70005B0718F4D92F0E9485079F938F937F936A
:100C80006F930E944008E8E6F0E00E9416070E9479
:100C90004B072F913F914F915F910E94A007DD2359
:100CA00051F09058A2EA2AED3FE049EC5FE3D0789A
:100CB0005D270E949705DF910C944B070E947206F6
:100CC0000C944B070E94440758F00E943D0740F0E7
:100CD00029F45F3F29F00C940D0751110C947F0704
:100CE0000C9413070E945C0768F39923B1F3552312
:100CF00091F3951B550BBB27AA276217730784072F
:100D000038F09F5F5F4F220F331F441FAA1FA9F3C4
:100D100035D00E2E3AF0E0E832D091505040E695B2
:100D2000001CCAF72BD0FE2F29D0660F771F881F13
:100D3000BB1F261737074807AB07B0E809F0BB0B06
:100D4000802DBF01FF2793585F4F3AF09E3F51051A
:100D500078F00C940D070C947F075F3FE4F3983E06
:100D6000D4F3869577956795B795F7959F5FC9F703
:100D7000880F911D9695879597F90895E1E0660F84
:100D8000771F881FBB1F621773078407BA0720F0FD
:100D9000621B730B840BBA0BEE1F88F7E095089566
:100DA000E89409C097FB3EF4909580957095619505
:100DB0007F4F8F4F9F4F9923A9F0F92F96E9BB27BB
:100DC0009395F695879577956795B795F111F8CF37
:100DD000FAF4BB0F11F460FF1BC06F5F7F4F8F4FA2
:100DE0009F4F16C0882311F096E911C0772321F098
:100DF0009EE8872F762F05C0662371F096E8862F30
:100E000070E060E02AF09A95660F771F881FDAF786
:100E1000880F9695879597F9089597F99F6780E8C9
:100E200070E060E008959FEF80EC0895DF93CF932A
:100E30001F930F93FF92EF92DF927B018C016894D6
:100E400006C0DA2EEF010E94A007FE01E894A591EA
:100E50002591359145915591A6F3EF010E94970593
:100E6000FE019701A801DA9469F7DF90EF90FF90F7
:100E70000F911F91CF91DF91089500240A941616C7
:100E8000170618060906089500240A941216130678
:100E9000140605060895092E0394000C11F4882306
:100EA00052F0BB0F40F4BF2B11F460FF04C06F5F22
:100EB0007F4F8F4F9F4F089557FD9058440F551FF8
:100EC00059F05F3F71F04795880F97FB991F61F0CC
:100ED0009F3F79F087950895121613061406551F43
:100EE000F2CF4695F1DF08C0161617061806991FAF
:100EF000F1CF86957105610508940895E894BB27A4
:100F000066277727CB0197F908959B01AC0160E034
:100F100070E080E89FE30C945E060E94A0070C94AA
:100F20004B070E943D0738F00E94440720F09523AC
:100F300011F00C940D070C94130711240C947F07E7
:100F40000E945C0770F3959FC1F3950F50E0551F09
:100F5000629FF001729FBB27F00DB11D639FAA270E
:100F6000F00DB11DAA1F649F6627B00DA11D661F5D
:100F7000829F2227B00DA11D621F739FB00DA11D7E
:100F8000621F839FA00D611D221F749F3327A00D38
:100F9000611D231F849F600D211D822F762F6A2FD4
:100FA00011249F5750409AF0F1F088234AF0EE0F39
:100FB000FF1FBB1F661F771F881F91505040A9F766
:100FC0009E3F510580F00C940D070C947F075F3F06
:100FD000E4F3983ED4F3869577956795B795F795A2
:100FE000E7959F5FC1F7FE2B880F911D969587951A
:100FF00097F9089519F416F40C9413070C94440807
:101000000E946407B8F39923C9F3B6F39F57550BB1
:1010100087FF0E9452080024A0E640EA9001805811
:101020005695979528F4805C660F771F881F20F0EF
:1010300026173707480730F4621B730B840B2029EF
:1010400031294A2BA69517940794202531254A2744
:1010500058F7660F771F881F20F0261737074807B5
:1010600030F4620B730B840B200D311D411DA095D4
:1010700081F7B901842F9158880F96958795089527
:101080009B01AC010C948D079F3F31F0915020F4EF
:10109000879577956795B795880F911D9695879554
:1010A00097F9089591505040660F771F881FD2F727
:1010B0000895A0E1B0E0EFE5F8E00C94E50B7C01C9
:1010C0001B016A01FC0117821682838181FF44C3E0
:1010D0009E012F5F3F4F3901F7019381F10193FD8D
:1010E000859193FF81911F01882309F431C38532D3
:1010F00039F493FD859193FF81911F01853239F475
:10110000B70190E00E94550D56016501E5CF10E052
:10111000512C912CFFE1F915D8F08B3279F038F48D
:10112000803279F08332A1F4F92DF0612EC08D3236
:1011300061F0803369F4292D21602DC0392D326092
:10114000932E892D8460982E2AC0E92DE86015C061
:1011500097FC2DC020ED280F2A3088F496FE06C09B
:101160003AE0139F200D1124122F19C08AE0589ED7
:10117000200D1124522EE92DE0629E2E10C08E32D9
:1011800031F496FCE5C2F92DF0649F2E08C08C3630
:1011900021F4292D2068922E02C0883641F4F101F5
:1011A00093FD859193FF81911F018111B3CF9BEB3B
:1011B000980F933020F4992D9061805E07C09BE9D1
:1011C000980F933008F066C1992D9F7E96FF16E028
:1011D0009F73992E853619F49064992E08C086362F
:1011E00021F4392F3068932E02C01111115097FE4F
:1011F00007C01C3350F444244394410E27E00BC035
:10120000183038F027E017E005C027E09CE3492EAE
:1012100002C0212F412C560184E0A80EB11CF6011A
:101220006081718182819381042DA3010E941C0C35
:101230006C01F981FC87F0FF02C0F3FF06C091FC4E
:1012400006C092FE06C000E205C00DE203C00BE23C
:1012500001C000E08C858C7019F001115AC29BC24C
:1012600097FE10C04C0CFC85F4FF04C08A818133CA
:1012700009F44A94141474F528E0241578F588E0EC
:10128000482E2CC096FC2AC0812F90E08C159D051D
:101290009CF03CEFC3163FEFD30674F0892D8068B5
:1012A000982E0AC0E2E0F0E0EC0FFD1FE10FF11D07
:1012B0008081803319F411501111F4CF97FE0EC0C4
:1012C00044244394410E812F90E0C816D9062CF493
:1012D0001C1904C04424439401C010E097FE06C0CA
:1012E0001C141D0434F4C601019605C085E090E08D
:1012F00002C081E090E001110196112331F0212F0D
:1013000030E02F5F3F4F820F931F252D30E0821773
:10131000930714F4581A01C0512C892D897049F48F
:10132000552039F0B70180E290E00E94550D5A94A3
:10133000F7CF002329F0B701802F90E00E94550DD0
:1013400093FC09C0552039F0B70180E390E00E947A
:10135000550D5A94F7CF97FE4CC04601D7FE02C0F8
:10136000812C912CC60188199909F301E80FF91F06
:10137000FE87ED87960124193109388B2F87012FBD
:1013800010E01195019511093FEF8316930629F49A
:10139000B7018EE290E00E94550DC814D9044CF0BC
:1013A0008F8598898815990524F4ED85FE858181BE
:1013B00001C080E3F1E08F1A91082D853E852F5FF3
:1013C0003F4F3E872D87801691062CF0B70190E0A5
:1013D0000E94550DD9CFC814D90441F49A8196338F
:1013E00020F4953319F43C8534FF81E3B70190E094
:1013F0004EC08A81813319F09C859F7E9C87B701FE
:1014000090E00E94550D111105C094FC18C085E6AE
:1014100090E017C0B7018EE290E00E94550D1E5F6C
:1014200082E001E0080FF301E80FF11D8081B701B0
:1014300090E00E94550D802F0113F3CFE6CF85E495
:1014400090E0B7010E94550DD7FC06C0C114D1042D
:1014500041F4EC85E4FF05C0D194C194D1088DE23C
:1014600001C08BE2B70190E00E94550D80E32AE0B5
:10147000C216D1042CF08F5FFAE0CF1AD108F7CF53
:10148000B70190E00E94550DB701C601C0960E94B9
:10149000550D54C1833631F0833779F0833509F027
:1014A00056C020C0560132E0A30EB11CF601808167
:1014B000898301E010E0630112C05601F2E0AF0E33
:1014C000B11CF601C080D18096FE03C0612F70E090
:1014D00002C06FEF7FEFC6010E94FF0C8C01F92D57
:1014E000FF7714C0560122E0A20EB11CF601C080A5
:1014F000D18096FE03C0612F70E002C06FEF7FEFD6
:10150000C6010E94F40C8C01F92DF0689F2EF3FDAA
:101510001AC0852D90E008171907A8F4B70180E2DA
:1015200090E00E94550D5A94F4CFF60197FC8591F6
:1015300097FE81916F01B70190E00E94550D511007
:101540005A94015011090115110579F7F7C0843635
:1015500011F0893661F5560197FE09C024E0A20E0C
:10156000B11CF60160817181828193810AC0F2E031
:10157000AF0EB11CF60160817181072E000C880B43
:10158000990BF92DFF769F2E97FF09C090958095B6
:10159000709561957F4F8F4F9F4FF0689F2E2AE087
:1015A00030E0A3010E94D70DC82EC6183FC0092DF8
:1015B000853721F40F7E2AE030E01DC0097F8F3689
:1015C00091F018F4883559F0C3C0803719F0883786
:1015D00011F0BEC0006104FF09C0046007C094FEA2
:1015E00008C0066006C028E030E005C020E130E019
:1015F00002C020E132E0560107FF09C084E0A80ED6
:10160000B11CF601608171818281938108C0F2E092
:10161000AF0EB11CF6016081718180E090E0A30102
:101620000E94D70DC82EC6180F77902E96FE0BC0BD
:10163000092D0E7FC11650F494FE0AC092FC08C01A
:10164000092D0E7E05C0DC2C092D03C0DC2C01C049
:10165000D12E04FF0DC0FE01EC0DF11D8081803301
:1016600011F4097E09C002FF06C0D394D39404C0CC
:10167000802F867809F0D39403FD11C000FF06C0C7
:101680001C2DD51480F4150D1D190DC0D51458F45A
:10169000B70180E290E00E94550DD394F7CFD514A6
:1016A00010F45D1801C0512C04FF10C0B70180E395
:1016B00090E00E94550D02FF17C001FD03C088E7AE
:1016C00090E002C088E590E0B7010CC0802F8678DA
:1016D00059F001FF02C08BE201C080E207FD8DE2FC
:1016E000B70190E00E94550DC11638F4B70180E3B0
:1016F00090E00E94550D1150F7CFCA94F301EC0D04
:10170000F11D8081B70190E00E94550DC110F5CF09
:1017100015C0F4E0F51560F584E0581A93FE1FC07B
:10172000011127C02C8523FF2AC006E910E0392DBE
:101730003071932EF8018491811124C0552009F451
:10174000E4CCB70180E290E00E94550D5A94F6CFA8
:10175000F7018681978126C08FEF9FEF23C0B701E5
:1017600080E290E00E94550D5A945110F8CFD8CFE6
:10177000512CB701802F90E00E94550DD3CF0AE97C
:1017800010E0D5CF91108052B70190E00E94550D26
:101790000F5F1F4FCFCF23E0251510F483E0BDCF9F
:1017A000512CC0CF6096E2E10C94010CA29FB001D5
:1017B000B39FC001A39F700D811D1124911DB29F85
:1017C000700D811D1124911D08952F923F924F920B
:1017D0005F926F927F928F929F92AF92BF92CF92C1
:1017E000DF92EF92FF920F931F93CF93DF93CDB7CA
:1017F000DEB7CA1BDB0B0FB6F894DEBF0FBECDBF42
:1018000009942A88398848885F846E847D848C8412
:101810009B84AA84B984C884DF80EE80FD800C811B
:101820001B81AA81B981CE0FD11D0FB6F894DEBFFE
:101830000FBECDBFED010895283008F027E0332713
:10184000DA01990F311D87FD9160009661057105E0
:1018500039F432602E5F3D9330E32A95E1F7089525
:101860009F3F30F080387105610509F03C5F3C5FB7
:101870003D93913008F08068911DDF93CF931F93C3
:101880000F93FF92EF92192F987F9695E92F9695D7
:101890009695E90FFF27E850FF4F99273327EE244D
:1018A000FF24A701E70105900894079428F4360F58
:1018B000E71EF81E491F511D660F771F881F991FCD
:1018C0000694A1F70590079428F4E70EF81E491F27
:1018D000561FC11D770F881F991F661F0694A1F719
:1018E0000590079428F4F80E491F561FC71FD11DF5
:1018F000880F991F661F771F0694A1F7059007941C
:1019000020F4490F561FC71FD81F990F661F771F56
:10191000881F0694A9F784911095177041F0D69509
:10192000C79557954795F794E7941A95C1F7EEE94F
:10193000F0E0689415901591359165919591059019
:101940007FE27395E118F10A430B560BC90BD009DE
:10195000C0F7E10CF11E431F561FC91FD01D7EF4B6
:10196000703311F48A95E6CFE894015030F0080FF7
:101970000AF40027021708F4202F2395022F7A3348
:1019800028F079E37D932A95E9F710C07D932A9595
:1019900089F6069497956795379517951794E118EA
:1019A000F10A430B560BC90BD00998F023957E9191
:1019B00073957A3308F070E37C932013B8F77E9127
:1019C00070617D9330F0839571E37D9370E32A9588
:1019D000E1F71124EF90FF900F911F91CF91DF91CC
:1019E000992787FD90950895FC01059061507040FE
:1019F0000110D8F7809590958E0F9F1F0895FC01D8
:101A00006150704001900110D8F7809590958E0F2D
:101A10009F1F08950F931F93CF93DF93009731F487
:101A20006115710519F480E090E03AC08B01EC017A
:101A30006EE070E081E090E00E94350EFC01892BA1
:101A400091F380E883830115110571F013870287F4
:101A500081E883838091C0019091C101892B21F499
:101A6000F093C101E093C0012097C9F0D187C087EE
:101A70008381826083838091C2019091C301892B0D
:101A800071F4F093C301E093C2018091C40190917D
:101A9000C501892B21F4F093C501E093C401CF0166
:101AA000DF91CF911F910F9108950F931F93CF93C3
:101AB000DF93FB01238121FD03C08FEF9FEF2CC03B
:101AC00022FF16C046815781248135814217530772
:101AD00044F4A081B1819D012F5F3F4F318320836A
:101AE0008C93268137812F5F3F4F3783268314C025
:101AF0008B01EC01FB010084F185E02D0995892B18
:101B0000E1F6D80116968D919C911797019617963C
:101B10009C938E931697CE01DF91CF911F910F91D9
:101B20000895A0E0B0E0E7E9FDE00C94F50BAE010C
:101B30004B5F5F4FFA0161917191AF018091C201DA
:101B40009091C3010E945908E2E00C94110C0F938C
:101B50001F93CF93DF93E091C201F091C3012381E2
:101B600021FF1BC08C01D0E0C0E0F80181918F0102
:101B70006091C2017091C301DB011896ED91FC9157
:101B80001997882331F00995892B79F3DFEFCFEF8F
:101B9000ECCF8AE00995892B19F08FEF9FEF02C0F7
:101BA0008D2F9C2FDF91CF911F910F910895FA01F6
:101BB000AA27283051F1203181F1E8946F936E7F8C
:101BC0006E5F7F4F8F4F9F4FAF4FB1E03ED0B4E07D
:101BD0003CD0670F781F891F9A1FA11D680F791FBE
:101BE0008A1F911DA11D6A0F711D811D911DA11DCF
:101BF00020D009F468943F912AE0269F11243019DF
:101C0000305D3193DEF6CF010895462F4770405D79
:101C10004193B3E00FD0C9F7F6CF462F4F70405D28
:101C20004A3318F0495D31FD4052419302D0A9F783
:101C3000EACFB4E0A6959795879577956795BA957D
:101C4000C9F700976105710508959B01AC010A2E43
:101C500006945795479537952795BA95C9F7620F1A
:101C6000731F841F951FA01D08950F931F93CF937B
:101C7000DF93869F8001879F100D969F100D112482
:101C8000C8010E94510EEC01009729F0A80160E004
:101C900070E00E94720FCE01DF91CF911F910F91E2
:101CA00008950F931F93CF93DF938230910510F423
:101CB00082E090E0E091C801F091C90120E030E0BD
:101CC000A0E0B0E0309719F1408151810281138189
:101CD00048175907C8F08417950769F4109731F031
:101CE00012960C93129713961C9327C00093C80169
:101CF0001093C90122C02115310519F0421753076D
:101D000018F49A01BD01EF01DF01F801DBCF2115C5
:101D10003105F9F0281B390B2430310580F48A8114
:101D20009B816115710521F0FB019383828304C0BF
:101D30009093C9018093C801FE01329644C0FE0110
:101D4000E20FF31F81939193225031093983288345
:101D50003AC02091C6013091C701232B41F4209154
:101D60000201309103013093C7012093C6012091F5
:101D70000001309101012115310541F42DB73EB725
:101D80004091040150910501241B350BE091C601DF
:101D9000F091C701E217F307A0F42E1B3F0B2817A1
:101DA000390778F0AC014E5F5F4F2417350748F0D4
:101DB0004E0F5F1F5093C7014093C60181939193CB
:101DC00002C0E0E0F0E0CF01DF91CF911F910F91D1
:101DD0000895CF93DF93009709F481C0FC013297F7
:101DE00013821282A091C801B091C901109781F4A9
:101DF00020813181820F931F2091C6013091C7014C
:101E00002817390751F5F093C701E093C60167C061
:101E1000ED0120E030E0CE17DF0740F44A815B811E
:101E20009E0141155105F1F0EA01F5CFD383C2833C
:101E300040815181840F951FC817D90759F48881B3
:101E40009981840F951F0296918380838A819B815B
:101E5000938382832115310529F4F093C901E0931E
:101E6000C8013DC0E901FB83EA8349915991C40F40
:101E7000D51FEC17FD0761F480819181840F951FB8
:101E80000296E90199838883828193819B838A8367
:101E9000E0E0F0E012968D919C911397009719F075
:101EA000FD01DC01F7CF8D919C9111979D012E5F73
:101EB0003F4F820F931F2091C6013091C701281711
:101EC000390769F4309729F41092C9011092C801BA
:101ED00002C013821282B093C701A093C601DF91A2
:101EE000CF910895DC0101C06D9341505040E0F75F
:061EF0000895F894FFCFF5
:101EF6000000CA0120007561727420696E69742041
:101F06006F6B0069326320696E6974206F6B004DD8
:101F1600505536303530207265736574206F6B000E
:101F2600416363656C5F416E676C6520526F6C6CD4
:101F36002C2050697463682C205961773D202566F2
:101F46002025662025660A004779726F5F416E6715
:101F56006C6520526F6C6C2C2050697463682C2061
:101F66005961773D2025662025662025660A0041B1
:101F76006E676C655F436F6D7020526F6C6C2C20C2
:101F860050697463682C205961773D2025662025A9
:081F9600662025660A0A00001E
:00000001FF
