S01900005553425F4B45595F4D4F5553455F4A4F592E73726563A0
S11300000C94EB000C943D010C9408010C94080131
S11300100C9408010C9408010C9408010C94080138
S11300200C9408010C9408010C94F6040C945C05DF
S11300300C9408010C9408010C9408010C94080118
S11300400C9408010C9408010C9408010C94080108
S11300500C9408010C9408010C9408010C940801F8
S11300600C9408010C9408010C9408010C940801E8
S11300700C9408010C9408010C9408010C940801D8
S11300800C9408010C9408010C9408010C940801C8
S11300900C9408010C9408010C9408010C940801B8
S11300A00C9408010C9408010C9408010001000050
S11300B0BC0112000200000F013B00220000890174
S11300C03300210000210109002201004A013F0000
S11300D02101003A0109000300000B010401030996
S11300E004F9001002030904EB000C0C034D006F2B
S11300F000750073006500000010034D0066006782
S1130100004E0061006D006500000004030904094D
S1130110023B00020100C032090400000103010295
S113012000092111010001223300070583030400A3
S11301300109040100010301010009211101000169
S1130140223F000705840308000105010906A101F7
S113015075019508050719E029E7150025018102B5
S1130160950175088103950575010508190129058F
S1130170910295017503910395067508150025688C
S11301800507190029688100C005010902A10105BC
S113019009190129031500250195037501810295AB
S11301A001750581030501093009311581257F7524
S11301B00895028106093895018106C012010002E2
S11301C000000020C0167F040001010200010000AD
S11301D001C10601C10611241FBECFEFDAE0DEBF64
S11301E0CDBF13E0A0E0B1E0EEEBF7E102C0059073
S11301F00D92A035B107D9F723E0A0E5B3E001C023
S11302001D92A636B207E1F70E940A010C94DD0B99
S11302100C9400002FEF81EE94E021508040904038
S1130220E1F700C0000060E070E082ED94E00E941D
S113023039070E94BF040E94AB048EE091E00E9443
S1130240A1078CE291E00E94A1070E94C6010E94CE
S1130250BF030E94CD010E94C2010E94DC040E94DF
S1130260F3048823E1F32FEF83ED90E321508040E2
S11302709040E1F700C00000FFCF1F920F920FB62D
S11302800F9211242F933F934F935F936F937F9318
S11302908F939F93AF93BF93EF93FF9389E591E07F
S11302A00E94A107FF91EF91BF91AF919F918F9110
S11302B07F916F915F914F913F912F910F900FBE5E
S11302C00F901F9018952C9A289A08952C98289886
S11302D00895EF92FF920F931F93CF93DF93C82F4C
S11302E07B018A010E9466018C2F0E94B904E114EB
S11302F0F10469F01016110654F4E7010E0D1F1DE8
S11303008FEF0E94B90489930C171D07C9F78FEF6B
S11303100E94B904C82F0E9463018C2FDF91CF91F2
S11303201F910F91FF90EF900895DF92EF92FF924B
S11303300F931F93CF93DF93C82F7B018A010E94F1
S11303406601C03208F4C05E8C2F0E94B904D82E16
S1130350E114F10461F0101611064CF4E7010E0DDE
S11303601F1D89910E94B9040C171D07D1F70E9423
S113037063018D2DDF91CF911F910F91FF90EF902D
S1130380DF9008952D9A08952D980895249A2C9A13
S1130390259A5898589AE89A0895AF92BF92CF92A6
S11303A0DF92EF92FF920F931F93CF93DF9300D0CE
S11303B000D01F92CDB7DEB784E691E00E94A1077A
S11303C040E050E060E070E080E00E9469011F922C
S11303D08F938DE791E09F938F930E94840740E071
S11303E050E060E070E081E00E9469011F928F9309
S11303F080E991E09F938F930E94840740E050E04E
S113040060E070E082E00E9469011F928F9383EAAA
S113041091E09F938F930E94840740E050E060E056
S113042070E083E00E9469011F928F9386EB91E054
S11304309F938F930E94840740E050E060E070E057
S113044084E00E9469011F928F9389EC91E09F934D
S11304508F930E94840740E050E060E070E085E004
S11304600E9469011F928F938CED91E09F938F936B
S11304700E94840740E050E060E070E086E00E9463
S113048069011F928F938FEE91E09F938F930E9447
S1130490840740E050E060E070E087E00E9469017A
S11304A01F928F9382E092E09F938F930E94840720
S11304B00FB6F894DEBF0FBECDBF45E050E0BE01DD
S11304C06F5F7F4F8AE00E94690185E192E09F930C
S11304D08F930E948407FE0131967F016E01F6E03E
S11304E0CF0ED11C0F900F9087010F2EF3E2AF2E89
S11304F0F2E0BF2EF02DF80181918F011F928F93AE
S1130500BF92AF920E9484070F900F900F900F90AC
S11305100C151D0581F78AE090E00E949A0745E0DA
S113052050E0BE016F5F7F4F8BE00E94690188E25B
S113053092E09F938F930E9484070F900F908701FE
S11305400F2EF3E2AF2EF2E0BF2EF02DF8018191D1
S11305508F011F928F93BF92AF920E9484070F90D6
S11305600F900F900F900C151D0581F78AE090E015
S11305700E949A0740E050E060E070E08CE00E9446
S113058069011F928F9386E392E09F938F930E9459
S1130590840740E050E060E070E08DE00E94690173
S11305A01F928F9389E492E09F938F930E94840714
S11305B040E050E060E070E08EE00E9469011F922C
S11305C08F938CE592E09F938F930E94840740E081
S11305D050E060E070E08FE00E9469011F928F9309
S11305E08FE692E09F938F930E94840745E050E04A
S11305F0BE016F5F7F4F80E10E94690182E892E053
S11306009F938F930E9484070FB6F894DEBF0FBEAA
S1130610CDBF03E212E0F70181917F011F928F9316
S11306201F930F930E9484070F900F900F900F90C9
S1130630EC14FD0481F78AE090E00E949A0740E000
S113064050E060E070E081E10E9469011F928F93A5
S113065080E992E09F938F930E94840740E050E0EA
S113066060E070E082E10E9469011F928F9383EA47
S113067092E09F938F930E94840740E050E060E0F3
S113068070E083E10E9469011F928F9386EB92E0F0
S11306909F938F930E94840740E050E060E070E0F5
S11306A084E10E9469011F928F9389EC92E09F93E9
S11306B08F930E94840740E050E060E070E085E1A1
S11306C00E9469011F928F938CED92E09F938F9308
S11306D00E94840740E050E060E070E086E10E9400
S11306E069011F928F938FEE92E09F938F930E94E4
S11306F0840740E050E060E070E087E10E94690117
S11307001F928F9382E093E09F938F930E948407BC
S113071040E050E060E070E08CE10E9469011F92CB
S11307208F9385E193E09F938F930E9484070FB684
S1130730F894DEBF0FBECDBF40E050E060E070E053
S11307408DE10E9469011F928F9388E293E09F9349
S11307508F930E9484070F900F900F900F900F902B
S11307600F900F900F900F90DF91CF911F910F91E9
S1130770FF90EF90DF90CF90BF90AF900895CF930C
S1130780DF9300D000D0CDB7DEB70E94C4010E9431
S113079063018FE39CE90197F1F700C000001A821E
S11307A0198241E050E0BE016E5F7F4F81E00E94FC
S11307B0950141E050E0BE016F5F7F4F82E00E94EF
S11307C095018FE38A83898340E050E060E070E024
S11307D081E00E94690181608A8340E050E060E02A
S11307E070E082E00E9469018160898341E050E009
S11307F0BE016E5F7F4F81E00E94950141E050E0B1
S1130800BE016F5F7F4F82E00E949501198240E034
S113081050E060E070E080E00E9469018C608983B0
S113082041E050E0BE016F5F7F4F80E00E94950180
S11308308FE1898341E050E0BE016F5F7F4F84E028
S11308400E94950183E0898341E050E0BE016F5F1F
S11308507F4F0E94950140E050E060E070E083E04B
S11308600E9469018E5F482F50E066E071E080E1EC
S11308700E94950140E050E060E070E083E00E9457
S113088069018E5F482F50E066E071E08AE00E94C3
S1130890950140E050E060E070E080E00E94690172
S11308A081608A8341E050E0BE016E5F7F4F80E04B
S11308B00E94950180E28A8341E050E0BE016E5FB0
S11308C07F4F81E10E9495018CE48B8341E050E0ED
S11308D0BE016D5F7F4F85E00E94950140E050E0CE
S11308E060E070E086E00E946901877F8C8341E0CC
S11308F050E0BE016C5F7F4F86E00E94950140E0AE
S113090050E060E070E081EE0E94950140E050E02C
S113091060E070E082EE0E94950140E050E060E00B
S113092070E080E00E94690182608C8341E050E0C5
S1130930BE016C5F7F4F80E00E9495018FE39CE9CC
S11309400197F1F700C000000F900F900F900F90E7
S1130950DF91CF910895209A219A229A239885B104
S1130960896085B98CB580648CBD8CB580618CBD83
S113097008958EBD0DB407FEFDCF8EB50895109277
S1130980CD0087E68093CC00EAECF0E080818660BD
S11309908083E9ECF0E080818061808380818860DD
S11309A080830895E8ECF0E0908195FFFDCF80937B
S11309B0CE0080E090E0089581E08093D70080EA43
S11309C08093D80082E189BD09B400FEFDCF80E99F
S11309D08093D8001092E00010925B038CE0809327
S11309E0E2007894089580915B0308951F920F921A
S11309F00FB60F9211242F933F938F939F93AF932E
S1130A00BF93EF93FF93E1EEF0E08081108283FFC8
S1130A100FC01092E90091E09093EB001092EC006B
S1130A2092E29093ED0098E09093F00010925B03B3
S1130A3082FF35C080915B03882389F180910B018B
S1130A40882369F1809150038F5F809350038370F2
S1130A5031F584E08093E9008091E80085FF1FC0B0
S1130A60809152038F5F8093520390910B018913FD
S1130A7016C01092520380915903E1EFF0E0808395
S1130A801082E3E5F3E029E533E0A1EFB0E08191E2
S1130A908C93E217F307D9F78AE38093E800FF9178
S1130AA0EF91BF91AF919F918F913F912F910F90B3
S1130AB00FBE0F901F9018951F920F920FB60F92B2
S1130AC011240F931F932F933F934F935F936F932F
S1130AD07F938F939F93AF93BF93CF93DF93EF93C2
S1130AE0FF931092E9008091E80083FFA0C1E1EF39
S1130AF0F0E0A08180814081908150E0592B2081D9
S1130B00908130E0B901792BC081D08192EF90932C
S1130B10E800863009F057C004C081E28093EB00FE
S1130B2093C12CEA30E00BEE10E0F901A591B491E9
S1130B304A175B0701F5F9013296A591B4916A173A
S1130B407B07C9F4F901349645915491F90136961D
S1130B5024918C2F90E09D2B8F3F910519F010F07C
S1130B608FEF90E0821708F4282FA8EEB0E06EEF24
S1130B70C1EFD0E006C0295F3F4F02171307A9F663
S1130B80CCCF8C91982F9570E1F382FD5DC1322F0B
S1130B90213208F030E2332309F44DC1FA01832FE6
S1130BA094919883815031968111FACF8FEF830FFE
S1130BB090E00196480F591F231B6C932111E1CF3C
S1130BC03032F9F241C1853061F48EEF8093E80050
S1130BD0E8EEF0E0808180FFFDCF40684093E300C1
S1130BE033C1893089F5A11188C040935B038EEF2E
S1130BF08093E80081E02EEC31E0C9EED0E0ABEE6A
S1130C00B0E00CEE10E06DEE70E08883A9014F5F58
S1130C105F4FF90194919C93992361F0FA014491F7
S1130C20F8014083F901329694912D5F3F4FFB0107
S1130C30908301C09A018F5F853039F7EAEEF0E0C6
S1130C408EE18083108200C1883081F4A03809F0DD
S1130C5054C0E8EEF0E0808180FFFDCF80915B031B
S1130C608093F1008EEF8093E800EEC081111AC0EA
S1130C70E8EEF0E0808180FFFDCFA23851F4E9EE88
S1130C80F0E060838091EB0085FB882780F9108277
S1130C9001C080E0E1EFF0E0808310828EEF80936A
S1130CA0E800D2C0982F9D7F913039F5A23029F504
S1130CB04115510509F0C3C0262F2F779FEF920FDE
S1130CC0943008F0BCC09EEF9093E8002093E900B4
S1130CD0833021F481E28093EB00B6C089E18093F4
S1130CE0EB0081E090E002C0880F991F2A95E2F79B
S1130CF0EAEEF0E080831082A7C06115710589F5E2
S1130D00A13A19F5813089F4E8EEF0E0808180FFA2
S1130D10FDCF80915A03E1EFF0E0808310821082CE
S1130D2010828EEF8093E8008FC0833009F07FC07B
S1130D30E8EEF0E0808180FFFDCF80910D0180938B
S1130D40F1008EEF8093E8007FC0A13209F06FC0FC
S1130D508B3009F06CC040930D018EEF8093E80056
S1130D6073C06130710509F062C0A13AD1F58130D8
S1130D70D1F4E8EEF0E0808180FFFDCF809159034B
S1130D80E1EFF0E080831082E3E5F3E089E593E0AE
S1130D90A1EFB0E021912C938E179F07D9F78EEF26
S1130DA08093E80051C0823069F4E8EEF0E080817D
S1130DB080FFFDCF80910B018093F1008EEF809333
S1130DC0E80042C0833099F5E8EEF0E0808180FFCE
S1130DD0FDCF80910C018093F1008EEF8093E800A9
S1130DE033C0A13221F5893081F4E8EEF0E080814E
S1130DF082FFFDCF8091F10080935103E8EEF0E093
S1130E008BEF80838EEF80831FC08A3041F4509330
S1130E100B01109252038EEF8093E80015C08B30C3
S1130E2031F440930C018EEF8093E8000DC081E211
S1130E308093EB0009C06C932111A3CE05C061150A
S1130E40710509F08ECFF3CFFF91EF91DF91CF9130
S1130E50BF91AF919F918F917F916F915F914F91CE
S1130E603F912F911F910F910F900FBE0F901F90E4
S1130E7018950F931F93CF93DF93009731F4611567
S1130E80710519F480E090E03AC08B01EC016EE04A
S1130E9070E081E090E00E94B209FC01892B91F39B
S1130EA080E883830115110571F01387028781E8B7
S1130EB0838380915C0390915D03892B21F4F093EB
S1130EC05D03E0935C032097C9F0D187C0878381D9
S1130ED08260838380915E0390915F03892B71F418
S1130EE0F0935F03E0935E0380916003909161034C
S1130EF0892B21F4F0936103E0936003CF01DF9128
S1130F00CF911F910F910895A0E0B0E0EAE8F7E0D7
S1130F100C94B60BAE014B5F5F4FFA016191719176
S1130F20AF0180915E0390915F030E94D107E2E0DC
S1130F300C94D20B60915E0370915F030E940C0BC2
S1130F4008950F931F93CF93DF93E0915E03F09185
S1130F505F03238121FF1BC08C01D0E0C0E0F801B6
S1130F6081918F0160915E0370915F03DB0118969C
S1130F70ED91FC911997882331F00995892B79F328
S1130F80DFEFCFEFECCF8AE00995892B19F08FEFD3
S1130F909FEF02C08D2F9C2FDF91CF911F910F9156
S1130FA00895ABE0B0E0E7EDF7E00C94A60B6C011C
S1130FB07B018A01FC0117821682838181FFCCC1E7
S1130FC0CE0101963C01F6019381F70193FD8591D1
S1130FD093FF81917F01882309F4BAC1853239F4E2
S1130FE093FD859193FF81917F01853229F4B601A8
S1130FF090E00E940C0BE7CF912C212C312CFFE1C7
S1131000F315D8F08B3279F038F4803279F08332EA
S1131010A1F4232D20611DC08D3261F0803369F469
S1131020232D216016C0832D8260382EE32DE460C9
S11310303E2E2AC0F32DF8601DC037FC2DC020EDD4
S1131040280F2A3040F08E32B9F436FC81C1232DAA
S11310502064322E19C036FE06C08AE0989E200D08
S11310601124922E11C0EAE02E9E200D1124222E6E
S1131070F32DF0623F2E08C08C3621F4832D806856
S1131080382E02C0883641F4F70193FD859193FF11
S113109081917F018111B3CF982F9F7D9554933017
S11310A028F40C5F1F4F9FE399830DC0833631F002
S11310B0833771F0833509F059C021C0F80180816C
S11310C089830E5F1F4F88248394912C530113C08E
S11310D02801F2E04F0E511CF801A080B18036FEC9
S11310E003C0692D70E002C06FEF7FEFC5010E945D
S11310F0010B4C018201F32DFF773F2E16C028010E
S113110022E0420E511CF801A080B18036FE03C0DB
S1131110692D70E002C06FEF7FEFC5010E94EF0AF6
S11311204C01F32DF0683F2E820133FC1BC0822D4D
S113113090E088169906B0F4B60180E290E00E942F
S11311400C0B2A94F4CFF50137FC859137FE81917D
S11311505F01B60190E00E940C0B21102A9421E05B
S1131160821A91088114910471F7E8C0843611F051
S1131170893641F5F80137FE07C0608171818281AB
S113118093810C5F1F4F08C060817181072E000C92
S1131190880B990B0E5F1F4FF32DFF763F2E97FFA1
S11311A009C090958095709561957F4F8F4F9F4FA3
S11311B0F0683F2E2AE030E0A3010E94480B882EFD
S11311C0861845C0853731F4232D2F7EB22E2AE0B0
S11311D030E025C0932D997FB92E8F36C1F018F4D5
S11311E0883579F0B5C0803719F0883721F0B0C060
S11311F0E92FE061BE2EB4FE0DC0FB2DF460BF2EBE
S113120009C034FE0AC0292F2660B22E06C028E089
S113121030E005C020E130E002C020E132E0F80116
S1131220B7FE07C060817181828193810C5F1F4F7B
S113123006C06081718180E090E00E5F1F4FA301C2
S11312400E94480B882E8618FB2DFF773F2E36FE12
S11312500DC0232D2E7FA22E891458F434FE0BC00A
S113126032FC09C0832D8E7EA82E05C0B82CA32C79
S113127003C0B82C01C0B92CA4FE0FC0FE01E80DB8
S1131280F11D8081803321F49A2D997EA92E09C005
S1131290A2FE06C0B394B39404C08A2D867809F0E4
S11312A0B394A3FC11C0A0FE06C0B21488F4280CA9
S11312B0922C9B180EC0B21460F4B60180E290E048
S11312C00E940C0BB394F7CFB21418F42B1802C07D
S11312D0982C212CA4FE10C0B60180E390E00E945B
S11312E00C0BA2FE17C0A1FC03C088E790E002C06B
S11312F088E590E0B6010CC08A2D867859F0A1FEED
S113130002C08BE201C080E2A7FC8DE2B60190E04E
S11313100E940C0B891438F4B60180E390E00E941B
S11313200C0B9A94F7CF8A94F301E80DF11D808198
S1131330B60190E00E940C0B8110F5CF222009F435
S113134042CEB60180E290E00E940C0B2A94F6CFC4
S1131350F6018681978102C08FEF9FEF2B96E2E121
S11313600C94C20B0F931F93CF93DF93869F80013E
S1131370879F100D969F100D1124C8010E94CE095D
S1131380EC01009729F0A80160E070E00E94FA0ADD
S1131390CE01DF91CF911F910F9108950F931F9369
S11313A0CF93DF938230910510F482E090E0E091D6
S11313B06403F091650320E030E0A0E0B0E03097F2
S11313C019F1408151810281138148175907C8F0EE
S11313D08417950769F4109731F012960C931297BD
S11313E013961C9327C0009364031093650322C0D3
S11313F02115310519F04217530718F49A01BD015C
S1131400EF01DF01F801DBCF21153105F9F0281BCD
S1131410390B2430310580F48A819B816115710573
S113142021F0FB019383828304C09093650380932E
S11314306403FE01329644C0FE01E20FF31F819360
S1131440919322503109398328833AC02091620351
S113145030916303232B41F4209102013091030165
S113146030936303209362032091000130910101C2
S11314702115310541F42DB73EB740910401509137
S11314800501241B350BE0916203F0916303E2171D
S1131490F307A0F42E1B3F0B2817390778F0AC0193
S11314A04E5F5F4F2417350748F04E0F5F1F509370
S11314B06303409362038193919302C0E0E0F0E000
S11314C0CF01DF91CF911F910F910895CF93DF93B7
S11314D0009709F481C0FC01329713821282A09113
S11314E06403B0916503109781F420813181820FE8
S11314F0931F20916203309163032817390751F534
S1131500F0936303E093620367C0ED0120E030E0F1
S1131510CE17DF0740F44A815B819E0141155105D6
S1131520F1F0EA01F5CFD383C28340815181840F66
S1131530951FC817D90759F488819981840F951F7D
S11315400296918380838A819B8193838283211570
S1131550310529F4F0936503E09364033DC0E90188
S1131560FB83EA8349915991C40FD51FEC17FD07FA
S113157061F480819181840F951F0296E90199831A
S11315808883828193819B838A83E0E0F0E01296D2
S11315908D919C911397009719F0FD01DC01F7CF11
S11315A08D919C9111979D012E5F3F4F820F931F48
S11315B020916203309163032817390769F4309747
S11315C029F4109265031092640302C013821282FC
S11315D0B0936303A0936203DF91CF910895FC015C
S11315E00590615070400110D8F7809590958E0F4A
S11315F09F1F0895DC0101C06D9341505040E0F7F6
S11316000895FC016150704001900110D8F7809555
S113161090958E0F9F1F08950F931F93CF93DF9381
S1131620FB01238121FD03C08FEF9FEF2CC022FF1C
S113163016C046815781248135814217530744F4EB
S1131640A081B1819D012F5F3F4F318320838C9313
S1131650268137812F5F3F4F3783268314C08B0148
S1131660EC01FB010084F185E02D0995892BE1F65D
S1131670D80116968D919C911797019617969C9375
S11316808E931697CE01DF91CF911F910F910895FC
S1131690FA01AA27283051F1203181F1E8946F939F
S11316A06E7F6E5F7F4F8F4F9F4FAF4FB1E03ED045
S11316B0B4E03CD0670F781F891F9A1FA11D680FE3
S11316C0791F8A1F911DA11D6A0F711D811D911D16
S11316D0A11D20D009F468943F912AE0269F11248B
S11316E03019305D3193DEF6CF010895462F4770EF
S11316F0405D4193B3E00FD0C9F7F6CF462F4F704A
S1131700405D4A3318F0495D31FD4052419302D0A7
S1131710A9F7EACFB4E0A69597958795779567954D
S1131720BA95C9F700976105710508959B01AC014D
S11317300A2E06945795479537952795BA95C9F774
S1131740620F731F841F951FA01D08952F923F924F
S11317504F925F926F927F928F929F92AF92BF92BD
S1131760CF92DF92EF92FF920F931F93CF93DF9369
S1131770CDB7DEB7CA1BDB0B0FB6F894DEBF0FBEC6
S1131780CDBF09942A88398848885F846E847D8413
S11317908C849B84AA84B984C884DF80EE80FD8015
S11317A00C811B81AA81B981CE0FD11D0FB6F8948B
S11117B0DEBF0FBECDBFED010895F894FFCF4C
S11317BE00006603200012345678907D01014154D6
S11317CE6D656761333275345F554152545F494ECE
S11317DE49545F434F4D504C4554450041546D653B
S11317EE6761333275345F5350495F494E49545FD4
S11317FE434F4D504C455445001B5B3235444461B8
S113180E7461203D20253564004952515F4F434396
S113181E555221006E524632344C30312052656797
S113182E6973746572732056616C7565002020208F
S113183E20434F4E464947203A20253032580A005D
S113184E2020202020454E5F4141203A2025303271
S113185E580A0020454E5F525841444452203A20C3
S113186E253032580A00202053455455505F4157B5
S113187E203A20253032580A0053455455505F52B1
S113188E455452203A20253032580A002020202078
S113189E2052465F4348203A20253032580A002011
S11318AE2052465F5345545550203A202530325825
S11318BE0A0020202020535441545553203A202509
S11318CE3032580A0052585F414444525F5030201F
S11318DE3A2000253032580052585F414444525F3A
S11318EE5031203A200052585F414444525F5032E6
S11318FE203A20253032580A0052585F414444524F
S113190E5F5033203A20253032580A0052585F4136
S113191E4444525F5034203A20253032580A005243
S113192E585F414444525F5035203A202530325896
S113193E0A0020202054585F41444452203A20008B
S113194E2052585F5057445F5030203A2025303291
S113195E580A002052585F5057445F5031203A20A5
S113196E253032580A002052585F5057445F503287
S113197E203A20253032580A002052585F505744DE
S113198E5F5033203A20253032580A002052585FD7
S113199E5057445F5034203A20253032580A0020E4
S11319AE52585F5057445F5035203A2025303258F4
S11319BE0A004649464F5F5354415455533A202525
S11319CE3032580A00202020202044594E50442002
S11319DE3A20253032580A002020204645415455DD
S11319EE5245203A20253032580A004D6178696DEF
S11319FE756D206E756D626572206F662054780069
S9030000FC
