S016000042616C616E63696E67526F626F742E7372656389
S11300000C94CC000C94E9000C94E9000C94E900E5
S11300100C94E9000C94E9000C94E9000C94E900B8
S11300200C94E9000C94E9000C94E9000C94E900A8
S11300300C94E9000C94E7060C94E9000C94E90094
S11300400C94E9000C94E9000C94E9000C94E90088
S11300500C94E9000C94E9000C94E9000C94E90078
S11300600C94E9000C94E900084AD73B3BCE016E9E
S113007084BCBFFDC12F3D6C74319ABD56833DDAFB
S11300803D00C77F11BED9E4BB4C3E916BAAAABE0A
S1130090000000803F006E616E00696E66000040E3
S11300A07A10F35A00A0724E18090010A5D4E80083
S11300B000E87648170000E40B54020000CA9A3B9B
S11300C0000000E1F5050000809698000000404221
S11300D00F000000A08601000000102700000000AF
S11300E0E803000000006400000000000A000000B3
S11300F000000100000000002C76D888DC674F085F
S113010023DFC1DFAE59E1B1B796E5E3E453C63A64
S1130110E651997696E8E6C28426EB898C9B62EDDB
S1130120407C6FFCEFBC9C9F40F2BAA56FA5F49095
S1130130055A2AF75C936B6CF9676DC11BFCE0E40C
S11301400D47FEF520E6B500D0ED902E0300943562
S113015077050080841E080000204E0A000000C8B5
S11301600C333333330F986E12831141EF8D211406
S1130170893BE65516CFFEE6DB18D1844B381BF7D6
S11301807C1D901DA4BBE424203284725E22810075
S1130190C9F124ECA1E53D2711241FBECFEFD8E01F
S11301A0DEBFCDBF11E0A0E0B1E0E6EEF2E202C0B6
S11301B005900D92A630B107D9F721E0A6E0B1E091
S11301C001C01D92AF35B207E1F70E94ED030C9414
S11301D071110C94000017BC18BC1092B30010925B
S11301E0B4000895FC019081955697BD18BC808198
S11301F085568093B3001092B4000895FC01908159
S1130200955698BD17BC808185568093B400109292
S1130210B3000895FB012081213019F40E94F200FB
S113022008950E94FE000895AF92BF92DF92EF926C
S1130230FF920F931F93CF93DF93C82FD62EB42E24
S1130240D52F662349F180ED0E944D078C2F0E9423
S1130250800781ED0E947407ED2CF12C1E141F04FD
S1130260ECF40B2D1D2FC0E0D0E0570181E0A81A5B
S1130270B108AC16BD0629F40E949D07F8018083DD
S113028004C00E949207F801808321960F5F1F4FDC
S1130290CE15DF0571F703C0D12C01C0D12C0E940B
S11302A077078D2DDF91CF911F910F91FF90EF90E4
S11302B0DF90BF90AF900895AB0161E00E941401FC
S11302C00895FF920F931F93CF93DF93C82FF62EB9
S11302D08A01662389F080ED0E944D078C2F0E94CD
S11302E08007FF2049F0E8010F0D111D89910E943C
S11302F08007C017D107D1F70E947707DF91CF910C
S11303001F910F91FF900895CF93DF931F92CDB764
S1130310DEB76983AE014F5F5F4F61E00E94610108
S11303200F90DF91CF910895EF92FF920F931F9357
S1130330CF93DF931F92CDB7DEB7442391F1F22E12
S1130340042F162FE82E1982BE016F5F7F4F0E9483
S11303505C01882311F1612F70E0601B71096F5FEC
S11303607F4F81E090E002C0880F991F0A95E2F761
S11303700197062E02C0880F991F0A94E2F72F2DC9
S113038030E002C0220F331F6A95E2F7F82EF09492
S11303909981F92282238F29898369818E2D0E9474
S11303A084010F90DF91CF911F910F91FF90EF90F7
S11303B0089520E041E066E08BE60E94940121E08C
S11303C043E062E08BE60E94940120E043E062E0B7
S11303D08AE10E94940164E089E10E94840123E09F
S11303E042E064E08BE10E94940123E042E064E097
S11303F08CE10E9494012FEF86E791E02150804028
S11304009040E1F700C00000E6E0F1E010821182C4
S11304101282138214821582168217821086118624
S113042012861386E2E1F1E01082118212821382B5
S113043014821582168217821086118612861386FC
S11304400895EF92FF920F931F93CF93DF93CDB74D
S1130450DEB72E970FB6F894DEBF0FBECDBF7C017A
S11304608B01AE014F5F5F4F8EE0FA0111928A95C6
S1130470E9F76EE08BE30E941401898190E0982FE4
S113048088272A81822BF701918380838B8190E0D6
S1130490982F88272C81822B938382838D8190E0EF
S11304A0982F88272E81822B95838483898590E0D9
S11304B0982F88272A85822BF801918380838B8546
S11304C090E0982F88272C85822B938382838D85B7
S11304D090E0982F88272E85822B958384832E96EF
S11304E00FB6F894DEBF0FBECDBFDF91CF911F9141
S11304F00F91FF90EF9008958F929F92AF92BF92C9
S1130500CF92DF92EF92FF920F931F93CF93DF93DB
S1130510EC018B0168817981072E000C880B990B03
S11305200E94510920E030E040E05AE30E94350A7D
S11305304B015C016C817D81072E000C880B990BAB
S11305400E94510920E030E040E05AE30E94350A5D
S11305506B017C016A817B81072E000C880B990B4F
S11305600E94510920E030E040E05AE30E94350A3D
S1130570A70196010E944A0820E030E044E353E4D6
S11305800E94350A2BED3FE049E450E40E94AE0896
S1130590F8016083718382839383A7019601C50167
S11305A0B4010E944A0820E030E044E353E40E948E
S11305B0350A2BED3FE049E450E40E94AE08F8010F
S11305C06483758386839783DF91CF911F910F9105
S11305D0FF90EF90DF90CF90BF90AF909F908F905F
S11305E008950F931F93CF93DF938C01EB01FC01CC
S11305F060817181072E000C880B990B0E945109B0
S113060023E333E343E851E40E94AE08688379832B
S11306108A839B83F80162817381072E000C880B07
S1130620990B0E94510923E333E343E851E40E9408
S1130630AE086C837D838E839F83F801648175810A
S1130640072E000C880B990B0E94510923E333E316
S113065043E851E40E94AE08688779878A879B87BC
S1130660DF91CF911F910F9108958F929F92AF9236
S1130670BF92CF92DF92EF92FF920F931F93CF938B
S1130680DF938C01EB01FC0162817381072E000C66
S1130690880B990B0E94510923E333E343E851E4A7
S11306A00E94AE084B015C01F80164817581072E3C
S11306B0000C880B990B0E94510923E333E343E8B0
S11306C051E40E94AE086B017C01F80160817181E4
S11306D0072E000C880B990B0E94510923E333E386
S11306E043E851E40E94AE082FE632E143E85AE3BE
S11306F00E94350A9B01AC01688179818A819B81C2
S11307000E94CB07688379838A839B832FE632E137
S113071043E85AE3C501B4010E94350A9B01AC01C8
S11307206C817D818E819F810E94CB076C837D8348
S11307308E839F832FE632E143E85AE3C701B60173
S11307400E94350A9B01AC01688579858A859B8561
S11307500E94CB07688779878A879B87DF91CF912F
S11307601F910F91FF90EF90DF90CF90BF90AF90CB
S11307709F908F900895CF93DF93CDB7DEB72C97DA
S11307800FB6F894DEBF0FBECDBFBE01695F7F4FC9
S1130790CE0101960E94210262E171E0CE01019630
S11307A00E947C0266E071E0CE0107960E94350348
S11307B066E071E0CE0107960E94F1022C960FB616
S11307C0F894DEBF0FBECDBFDF91CF91089582E1D3
S11307D091E0089586E091E008958FB78F778FBFF9
S11307E060E070E080EC97E00E94480F0E945F0692
S11307F00E9466060E9489060E94BC060E94A80701
S11308000E9447070E94D9010E947D052FEF80E7CF
S113081092E0215080409040E1F700C000008FB783
S113082080688FBF0E94EB00FFCF8F929F92AF92A0
S1130830BF92CF92DF92EF92FF92FC01C480D580E9
S1130840E680F78020E030E040EA50E4C701B601DA
S11308500E94280A8823B4F0A701960160E070E0A2
S113086080EA90E40E94CA07DC01CB01B05880936F
S1130870280190932901A0932A01B0932B0110928F
S11308801E014BC020E030E0A901C701B6010E945F
S1130890280A88238CF0A701960160E070E080EAC2
S11308A090E40E94CA076093280170932901809301
S11308B02A0190932B012EC020E030E040EA50EC56
S11308C0C701B6010E94A9088823A4F420E030E0FF
S11308D040EA50E4C701B6010E94CB07DC01CB011A
S11308E0B0588093280190932901A0932A01B093D2
S11308F02B0110C020E030E040EA50E4C701B6010B
S11309000E94CB07609328017093290180932A01E8
S113091090932B0181E080931E01609128017091D6
S1130920290180912A0190912B0120E030E0A90156
S11309300E94A908811109C010922001109221017E
S113094010922201109223014CC0C0902801D09033
S11309502901E0902A01F0902B016091240170910B
S11309602501809126019091270120912801309141
S1130970290140912A0150912B01809024019090EB
S11309802501A0902601B090270180902801909025
S11309902901A0902A01B0902B010E94CB072FE6D9
S11309A032E143E85AE30E94350A2FE632E143E09C
S11309B05BE30E94350A4B015C01A7019601C70164
S11309C0B6010E94CB079B01AC01C501B4010E9492
S11309D0CB076093200170932101809322019093AF
S11309E02301609120017091210180912201909155
S11309F0230120E030E04FE753E40E94280A181650
S1130A006CF480E090E0AFE7B3E48093200190932E
S1130A102101A0932201B093230110C080912001F1
S1130A2090912101A0912201B09123018093200192
S1130A3090932101A0932201B0932301609120019E
S1130A4070912101809122019091230120E030E0F6
S1130A50A9010E94A90888234CF410922001109245
S1130A602101109222011092230110C080912001D3
S1130A7090912101A0912201B09123018093200142
S1130A8090932101A0932201B0932301609120014E
S1130A9070912101809122019091230120E030E0A6
S1130AA04FE753E40E94AE0820E030E048EC52E403
S1130AB00E94350A0E94200960931F016EE171E0D3
S1130AC08FE191E00E940A0180912801909129010F
S1130AD0A0912A01B0912B018093240190932501C8
S1130AE0A0932601B0932701FF90EF90DF90CF9061
S1130AF0BF90AF909F908F900895E8E3F1E010824B
S1130B001182128213821482158216821782108631
S1130B10118612861386ECE2F1E0108211821282B1
S1130B201382148215821682178210861186128609
S1130B30138608954F925F926F927F92AF92BF9205
S1130B40CF92DF92EF92FF920F931F93CF93DF9395
S1130B505C018B016A01C8E3D1E02FE632E143E88E
S1130B605AE3F60160817181828193810E94350A82
S1130B700F2EFCE2EF2EF1E0FF2EF02DF701208185
S1130B803181428153810E94CB0726EA37E34DE14C
S1130B905FE30E94350A2B013C0124EB30E945EC6C
S1130BA05EE3F80160817181828193810E94350A3C
S1130BB09B01AC01C301B2010E94CB076883798316
S1130BC08A839B832FE632E143E85AE3F60164818A
S1130BD07581868197810E94350AF70124813581C8
S1130BE0468157810E94CB0726EA37E34DE15FE354
S1130BF00E94350A2B013C0124EB30E945EC5EE30D
S1130C00F80164817581868197810E94350A9B0170
S1130C10AC01C301B2010E94CB076C837D838E8338
S1130C209F832FE632E143E85AE3F601608571853C
S1130C30828593850E94350AF70120853185428596
S1130C4053850E94CB0726EA37E34DE15FE30E9418
S1130C50350A6B017C0124EB30E945EC5EE3F801D5
S1130C6060857185828593850E94350A9B01AC015C
S1130C70C701B6010E94CB07688779878A879B875B
S1130C808CE0FE01ACE2B1E001900D928A95E1F7AF
S1130C908CE0FE01D50101900D928A95E1F7C50122
S1130CA0DF91CF911F910F91FF90EF90DF90CF9044
S1130CB0BF90AF907F906F905F904F900895569A39
S1130CC0559A239A539A15B81BB80895EEE6F0E0A6
S1130CD080818E7F8083A89884B58F7B84BD84B502
S1130CE0806884BD84B58F7E84BD84B5806284BDF4
S1130CF084B5816084BD84B5826084BD84B5877FFA
S1130D0084BD85B5826085BD8BE986BD17BC18BCE2
S1130D100895AFE6B0E08C918E7F8C93B098E0E8B4
S1130D20F0E080818F7B808380818F7780838081D6
S1130D308F7E808380818F7D808380818E7F80837E
S1130D4080818D7F8083E1E8F0E08081877F8083EC
S1130D5080818F7E808380818160808380818260B6
S1130D6080838FEF8093850082E8809384008C9148
S1130D7081608C93B09A0895E0E7F0E080818E7FE3
S1130D808083B898E0EBF0E080818F7B8083808162
S1130D908068808380818F7E80838081806280836D
S1130DA0808181608083808182608083E1EBF0E0D8
S1130DB08081877F80838081826080838BE98093B8
S1130DC0B2001092B3008FEF8093B40008951F9285
S1130DD00F920FB60F9211242F933F934F935F936B
S1130DE06F937F938F939F93AF93BF93EF93FF93EF
S1130DF0CF93DF93CDB7DEB72C97DEBFCDBF809105
S1130E0044018F5F8093440180914401823031F525
S1130E10109244010E94BB030E94E7039093540183
S1130E20809353010E94EA03909346018093450105
S1130E306091530170915401AC01CE0101960E945E
S1130E409A058CE0FE013196A7E4B1E001900D9281
S1130E508A95E1F787E491E00E9415042C960FB679
S1130E60F894DEBF0FBECDBFDF91CF91FF91EF911C
S1130E70BF91AF919F918F917F916F915F914F91AE
S1130E803F912F910F900FBE0F901F9018951092C5
S1130E90B9008CE08093B800089594EA9093BC0064
S1130EA0ECEBF0E090819923ECF79091B900987FF6
S1130EB0983011F09031A1F48093BB0084E88093C2
S1130EC0BC00ECEBF0E080818823ECF79091B90052
S1130ED0987F983139F081E0983429F480E00895BE
S1130EE081E0089580E008950E944D07089584E903
S1130EF08093BC00ECEBF0E0808184FDFDCF08958D
S1130F008093BB0084E88093BC00ECEBF0E080812C
S1130F108823ECF79091B900987F81E0983209F426
S1130F2080E0089584EC8093BC00ECEBF0E08081D9
S1130F308823ECF78091BB00089584E88093BC007B
S1130F40ECEBF0E080818823ECF78091BB000895FE
S1130F50E0ECF0E08081826080831092C5008FEC29
S1130F608093C400E2ECF0E0808186608083E1EC51
S1130F70F0E080818061808380818860808308952F
S1130F80E0ECF0E0908195FFFDCF8093C60080E017
S1130F9090E008955058BB27AA270E94E2070C94BA
S1130FA0EE090E94E00938F00E94E70920F039F4C4
S1130FB09F3F19F426F40C94B6090EF4E095E7FB70
S1130FC00C94B009E92F0E94FF0958F3BA1762077D
S1130FD073078407950720F079F4A6F50C94210A89
S1130FE00EF4E0950B2EBA2FA02D0B01B901900140
S1130FF00C01CA01A0011124FF27591B99F0593F84
S113100050F4503E68F11A16F040A22F232F342FCB
S11310104427585FF3CF469537952795A795F04019
S11310205395C9F77EF41F16BA0B620B730B840B2E
S1131030BAF09150A1F0FF0FBB1F661F771F881FE6
S1131040C2F70EC0BA0F621F731F841F48F487953E
S113105077956795B795F7959E3F08F0B0CF939530
S1131060880F08F09927EE0F9795879508950E94A9
S1131070E00960F080E891E009F49EEF0E94E7093E
S113108028F040E851E071F45EEF0CC00C94B6090E
S11310900C94210AE92FE0780E94FF0940F3092EFD
S11310A0052AB1F3261737074807590738F00E2EDB
S11310B007F8E02569F0E025E0640AC0EF6307F86B
S11310C0009407FADB01B9019D01DC01CA01AD01FD
S11310D0EF930E94C5080E94EE090E947A085F916E
S11310E0552339F02BED3FE049E450FD49EC0C94D5
S11310F0CB070895DF93DD27B92FBF7740E85FE37F
S11311001616170648075B0718F4D92F0E942D0AF4
S11311109F938F937F936F930E94A20AE8E6F0E077
S11311200E94B9090E94EE092F913F914F915F915E
S11311300E94480ADD2351F09058A2EA2AED3FE0CC
S113114049EC5FE3D0785D270E94E207DF910C94BD
S1131150EE090E948C0908F481E008950E94C208F7
S11311600C94EE090E94E70958F00E94E00940F04F
S113117029F45F3F29F00C94B00951110C94220A10
S11311800C94B6090E94FF0968F39923B1F355231F
S113119091F3951B550BBB27AA2762177307840786
S11311A038F09F5F5F4F220F331F441FAA1FA9F31C
S11311B035D00E2E3AF0E0E832D091505040E6950A
S11311C0001CCAF72BD0FE2F29D0660F771F881F6B
S11311D0BB1F261737074807AB07B0E809F0BB0B5E
S11311E0802DBF01FF2793585F4F3AF09E3F510572
S11311F078F00C94B0090C94220A5F3FE4F3983E13
S1131200D4F3869577956795B795F7959F5FC9F75A
S1131210880F911D9695879597F90895E1E0660FDB
S1131220771F881FBB1F621773078407BA0720F054
S1131230621B730B840BBA0BEE1F88F7E0950895BD
S11312400E94070A88F09F5798F0B92F9927B75141
S1131250B0F0E1F0660F771F881F991F1AF0BA9556
S1131260C9F714C0B13091F00E94210AB1E0089589
S11312700C94210A672F782F8827B85F39F0B93F7B
S1131280CCF3869577956795B395D9F73EF4909509
S11312908095709561957F4F8F4F9F4F0895E89487
S11312A009C097FB3EF490958095709561957F4FAA
S11312B08F4F9F4F9923A9F0F92F96E9BB27939558
S11312C0F695879577956795B795F111F8CFFAF468
S11312D0BB0F11F460FF1BC06F5F7F4F8F4F9F4F99
S11312E016C0882311F096E911C0772321F09EE8F7
S11312F0872F762F05C0662371F096E8862F70E05D
S113130060E02AF09A95660F771F881FDAF7880F36
S11313109695879597F90895990F0008550FAA0B8C
S1131320E0E8FEEF16161706E807F907C0F01216F4
S11313301306E407F50798F0621B730B840B950BF7
S113134039F40A2661F0232B242B252B21F408954C
S11313500A2609F4A140A6958FEF811D811D0895E9
S113136097F99F6780E870E060E008959FEF80EC54
S11313700895DF93CF931F930F93FF92EF92DF9221
S11313807B018C01689406C0DA2EEF010E94480AA2
S1131390FE01E894A5912591359145915591A6F3C7
S11313A0EF010E94E207FE019701A801DA9469F7B0
S11313B0DF90EF90FF900F911F91CF91DF910895EF
S11313C000240A9416161706180609060895002420
S11313D00A9412161306140605060895092E03949A
S11313E0000C11F4882352F0BB0F40F4BF2B11F40E
S11313F060FF04C06F5F7F4F8F4F9F4F089557FD6D
S11314009058440F551F59F05F3F71F04795880F6E
S113141097FB991F61F09F3F79F087950895121605
S113142013061406551FF2CF4695F1DF08C01616B1
S113143017061806991FF1CF869571056105089462
S11314400895E894BB2766277727CB0197F9089579
S11314500E948C0908F48FEF08959B01AC0160E0B1
S113146070E080E89FE30C94AE080E94480A0C9454
S1131470EE090E94E00938F00E94E70920F0952364
S113148011F00C94B0090C94B60911240C94220A9E
S11314900E94FF0970F3959FC1F3950F50E0551F0B
S11314A0629FF001729FBB27F00DB11D639FAA27B5
S11314B0F00DB11DAA1F649F6627B00DA11D661F04
S11314C0829F2227B00DA11D621F739FB00DA11D25
S11314D0621F839FA00D611D221F749F3327A00DDF
S11314E0611D231F849F600D211D822F762F6A2F7B
S11314F011249F5750409AF0F1F088234AF0EE0FE0
S1131500FF1FBB1F661F771F881F91505040A9F70C
S11315109E3F510580F00C94B0090C94220A5F3F61
S1131520E4F3983ED4F3869577956795B795F79548
S1131530E7959F5FC1F7FE2B880F911D96958795C0
S113154097F908959B01AC010C94350AA0E1B0E031
S1131550ECEAFAE00C94230E7C011B016A01FC0105
S113156017821682838181FF44C39E012F5F3F4F00
S11315703901F7019381F10193FD859193FF8191E5
S11315801F01882309F431C3853239F493FD859111
S113159093FF81911F01853239F4B70190E00E94D5
S11315A0930F56016501E5CF10E0512C912CFFE11A
S11315B0F915D8F08B3279F038F4803279F083322F
S11315C0A1F4F92DF0612EC08D3261F0803369F4FD
S11315D0292D21602DC0392D3260932E892D8460F0
S11315E0982E2AC0E92DE86015C097FC2DC020ED87
S11315F0280F2A3088F496FE06C03AE0139F200D87
S11316001124122F19C08AE0589E200D1124522E45
S1131610E92DE0629E2E10C08E3231F496FCE5C2B4
S1131620F92DF0649F2E08C08C3621F4292D2068F2
S1131630922E02C0883641F4F10193FD859193FF07
S113164081911F018111B3CF9BEB980F933020F44C
S1131650992D9061805E07C09BE9980F933008F044
S113166066C1992D9F7E96FF16E09F73992E85364D
S113167019F49064992E08C0863621F4392F306805
S1131680932E02C01111115097FE07C01C3350F461
S113169044244394410E27E00BC0183038F027E06F
S11316A017E005C027E09CE3492E02C0212F412CFE
S11316B0560184E0A80EB11CF6016081718182811B
S11316C09381042DA3010E945A0E6C01F981FC87B9
S11316D0F0FF02C0F3FF06C091FC06C092FE06C0F4
S11316E000E205C00DE203C00BE201C000E08C85FE
S11316F08C7019F001115AC29BC297FE10C04C0C99
S1131700FC85F4FF04C08A81813309F44A941414DB
S113171074F528E0241578F588E0482E2CC096FC52
S11317202AC0812F90E08C159D059CF03CEFC316D8
S11317303FEFD30674F0892D8068982E0AC0E2E04A
S1131740F0E0EC0FFD1FE10FF11D8081803319F4EF
S113175011501111F4CF97FE0EC044244394410E4E
S1131760812F90E0C816D9062CF41C1904C0442417
S1131770439401C010E097FE06C01C141D0434F409
S1131780C601019605C085E090E002C081E090E0CA
S113179001110196112331F0212F30E02F5F3F4FCB
S11317A0820F931F252D30E08217930714F4581AE3
S11317B001C0512C892D897049F4552039F0B701A5
S11317C080E290E00E94930F5A94F7CF002329F00F
S11317D0B701802F90E00E94930F93FC09C055201D
S11317E039F0B70180E390E00E94930F5A94F7CF49
S11317F097FE4CC04601D7FE02C0812C912CC60135
S113180088199909F301E80FF91FFE87ED879601FE
S113181024193109388B2F87012F10E01195019578
S113182011093FEF8316930629F4B7018EE290E085
S11318300E94930FC814D9044CF08F859889881599
S1131840990524F4ED85FE85818101C080E3F1E0F2
S11318508F1A91082D853E852F5F3F4F3E872D8738
S1131860801691062CF0B70190E00E94930FD9CF17
S1131870C814D90441F49A81963320F4953319F4A9
S11318803C8534FF81E3B70190E04EC08A81813307
S113189019F09C859F7E9C87B70190E00E94930F6E
S11318A0111105C094FC18C085E690E017C0B7017B
S11318B08EE290E00E94930F1E5F82E001E0080F29
S11318C0F301E80FF11D8081B70190E00E94930FAE
S11318D0802F0113F3CFE6CF85E490E0B7010E9497
S11318E0930FD7FC06C0C114D10441F4EC85E4FF86
S11318F005C0D194C194D1088DE201C08BE2B70137
S113190090E00E94930F80E32AE0C216D1042CF0E9
S11319108F5FFAE0CF1AD108F7CFB70190E00E94A9
S1131920930FB701C601C0960E94930F54C183362A
S113193031F0833779F0833509F056C020C0560161
S113194032E0A30EB11CF6018081898301E010E02E
S1131950630112C05601F2E0AF0EB11CF601C08063
S1131960D18096FE03C0612F70E002C06FEF7FEF5D
S1131970C6010E943D0F8C01F92DFF7714C056015A
S113198022E0A20EB11CF601C080D18096FE03C0F5
S1131990612F70E002C06FEF7FEFC6010E94320F2B
S11319A08C01F92DF0689F2EF3FD1AC0852D90E06F
S11319B008171907A8F4B70180E290E00E94930F7A
S11319C05A94F4CFF60197FC859197FE81916F01AB
S11319D0B70190E00E94930F51105A9401501109DD
S11319E00115110579F7F7C0843611F0893661F5D0
S11319F0560197FE09C024E0A20EB11CF6016081D5
S1131A007181828193810AC0F2E0AF0EB11CF601AC
S1131A1060817181072E000C880B990BF92DFF76DC
S1131A209F2E97FF09C090958095709561957F4F83
S1131A308F4F9F4FF0689F2E2AE030E0A3010E9451
S1131A40CF0FC82EC6183FC0092D853721F40F7E4D
S1131A502AE030E01DC0097F8F3691F018F48835F4
S1131A6059F0C3C0803719F0883711F0BEC0006147
S1131A7004FF09C0046007C094FE08C0066006C0E5
S1131A8028E030E005C020E130E002C020E132E08F
S1131A90560107FF09C084E0A80EB11CF60160815D
S1131AA071818281938108C0F2E0AF0EB11CF6010E
S1131AB06081718180E090E0A3010E94CF0FC82E65
S1131AC0C6180F77902E96FE0BC0092D0E7FC116F7
S1131AD050F494FE0AC092FC08C0092D0E7E05C085
S1131AE0DC2C092D03C0DC2C01C0D12E04FF0DC059
S1131AF0FE01EC0DF11D8081803311F4097E09C0D3
S1131B0002FF06C0D394D39404C0802F867809F0D2
S1131B10D39403FD11C000FF06C01C2DD51480F41E
S1131B20150D1D190DC0D51458F4B70180E290E0CD
S1131B300E94930FD394F7CFD51410F45D1801C00D
S1131B40512C04FF10C0B70180E390E00E94930F72
S1131B5002FF17C001FD03C088E790E002C088E5DA
S1131B6090E0B7010CC0802F867859F001FF02C0C5
S1131B708BE201C080E207FD8DE2B70190E00E9494
S1131B80930FC11638F4B70180E390E00E94930FDD
S1131B901150F7CFCA94F301EC0DF11D8081B70108
S1131BA090E00E94930FC110F5CF15C0F4E0F51535
S1131BB060F584E0581A93FE1FC0011127C02C85DC
S1131BC023FF2AC006E910E0392D3071932EF80165
S1131BD08491811124C0552009F4E4CCB70180E23A
S1131BE090E00E94930F5A94F6CFF7018681978173
S1131BF026C08FEF9FEF23C0B70180E290E00E94E0
S1131C00930F5A945110F8CFD8CF512CB701802F8D
S1131C1090E00E94930FD3CF0AE910E0D5CF911042
S1131C208052B70190E00E94930F0F5F1F4FCFCFF8
S1131C3023E0251510F483E0BDCF512CC0CF60966E
S1131C40E2E10C943F0E2F923F924F925F926F927B
S1131C507F928F929F92AF92BF92CF92DF92EF9238
S1131C60FF920F931F93CF93DF93CDB7DEB7CA1BB9
S1131C70DB0B0FB6F894DEBF0FBECDBF09942A88E4
S1131C80398848885F846E847D848C849B84AA848C
S1131C90B984C884DF80EE80FD800C811B81AA8119
S1131CA0B981CE0FD11D0FB6F894DEBF0FBECDBFE4
S1131CB0ED010895283008F027E03327DA01990F61
S1131CC0311D87FD916000966105710539F432601C
S1131CD02E5F3D9330E32A95E1F708959F3F30F05E
S1131CE080387105610509F03C5F3C5F3D9391309C
S1131CF008F08068911DDF93CF931F930F93FF9299
S1131D00EF92192F987F9695E92F96959695E90F5E
S1131D10FF27E850FF4F99273327EE24FF24A7011C
S1131D20E70105900894079428F4360FE71EF81E7F
S1131D30491F511D660F771F881F991F0694A1F72D
S1131D400590079428F4E70EF81E491F561FC11D7D
S1131D50770F881F991F661F0694A1F705900794B3
S1131D6028F4F80E491F561FC71FD11D880F991F4D
S1131D70661F771F0694A1F70590079420F4490F76
S1131D80561FC71FD81F990F661F771F881F0694F9
S1131D90A9F784911095177041F0D695C79557957A
S1131DA04795F794E7941A95C1F7EEE9F0E0689443
S1131DB01590159135916591959105907FE27395F4
S1131DC0E118F10A430B560BC90BD009C0F7E10C1B
S1131DD0F11E431F561FC91FD01D7EF4703311F42A
S1131DE08A95E6CFE894015030F0080F0AF40027F2
S1131DF0021708F4202F2395022F7A3328F079E371
S1131E007D932A95E9F710C07D932A9589F6069467
S1131E1097956795379517951794E118F10A430B31
S1131E20560BC90BD00998F023957E9173957A339C
S1131E3008F070E37C932013B8F77E9170617D9372
S1131E4030F0839571E37D9370E32A95E1F71124D3
S1131E50EF90FF900F911F91CF91DF91992787FD0C
S1131E6090950895FC010590615070400110D8F7D9
S1131E70809590958E0F9F1F0895FC0161507040CE
S1131E8001900110D8F7809590958E0F9F1F0895AB
S1131E900F931F93CF93DF93009731F4611571056E
S1131EA019F480E090E03AC08B01EC016EE070E040
S1131EB081E090E00E942D10FC01892B91F380E8D1
S1131EC083830115110571F01387028781E88383E9
S1131ED08091550190915601892B21F4F09356017C
S1131EE0E09355012097C9F0D187C0878381826030
S1131EF083838091570190915801892B71F4F09359
S1131F005801E09357018091590190915A01892B0E
S1131F1021F4F0935A01E0935901CF01DF91CF915D
S1131F201F910F9108950F931F93CF93DF93FB019C
S1131F30238121FD03C08FEF9FEF2CC022FF16C029
S1131F4046815781248135814217530744F4A08187
S1131F50B1819D012F5F3F4F318320838C93268174
S1131F6037812F5F3F4F3783268314C08B01EC01E9
S1131F70FB010084F185E02D0995892BE1F6D80158
S1131F8016968D919C911797019617969C938E9314
S1131F901697CE01DF91CF911F910F910895FA0109
S1131FA0AA27283051F1203181F1E8946F936E7F94
S1131FB06E5F7F4F8F4F9F4FAF4FB1E03ED0B4E085
S1131FC03CD0670F781F891F9A1FA11D680F791FC6
S1131FD08A1F911DA11D6A0F711D811D911DA11DD7
S1131FE020D009F468943F912AE0269F11243019E7
S1131FF0305D3193DEF6CF010895462F4770405D82
S11320004193B3E00FD0C9F7F6CF462F4F70405D30
S11320104A3318F0495D31FD4052419302D0A9F78B
S1132020EACFB4E0A6959795879577956795BA9585
S1132030C9F700976105710508959B01AC010A2E4B
S113204006945795479537952795BA95C9F7620F22
S1132050731F841F951FA01D08950F931F93CF9383
S1132060DF93869F8001879F100D969F100D11248A
S1132070C8010E944910EC01009729F0A80160E012
S113208070E00E946A11CE01DF91CF911F910F91F0
S113209008950F931F93CF93DF938230910510F42B
S11320A082E090E0E0915D01F0915E0120E030E09B
S11320B0A0E0B0E0309719F1408151810281138191
S11320C048175907C8F08417950769F4109731F039
S11320D012960C93129713961C9327C000935D01DC
S11320E010935E0122C02115310519F042175307E0
S11320F018F49A01BD01EF01DF01F801DBCF2115CE
S11321003105F9F0281B390B2430310580F48A811C
S11321109B816115710521F0FB019383828304C0C7
S113212090935E0180935D01FE01329644C0FE01EE
S1132130E20FF31F8193919322503109398328834D
S11321403AC020915B0130915C01232B41F4209132
S113215002013091030130935C0120935B012091D3
S11321600001309101012115310541F42DB73EB72D
S11321704091040150910501241B350BE0915B0152
S1132180F0915C01E217F307A0F42E1B3F0B281714
S1132190390778F0AC014E5F5F4F2417350748F0DC
S11321A04E0F5F1F50935C0140935B0181939193A9
S11321B002C0E0E0F0E0CF01DF91CF911F910F91D9
S11321C00895CF93DF93009709F481C0FC013297FF
S11321D013821282A0915D01B0915E01109781F487
S11321E020813181820F931F20915B0130915C012A
S11321F02817390751F5F0935C01E0935B0167C040
S1132200ED0120E030E0CE17DF0740F44A815B8126
S11322109E0141155105F1F0EA01F5CFD383C28344
S113222040815181840F951FC817D90759F48881BB
S11322309981840F951F0296918380838A819B8163
S1132240938382832115310529F4F0935E01E09391
S11322505D013DC0E901FB83EA8349915991C40FB3
S1132260D51FEC17FD0761F480819181840F951FC0
S11322700296E90199838883828193819B838A836F
S1132280E0E0F0E012968D919C911397009719F07D
S1132290FD01DC01F7CF8D919C9111979D012E5F7B
S11322A03F4F820F931F20915B0130915C012817EF
S11322B0390769F4309729F410925E0110925D0198
S11322C002C013821282B0935C01A0935B01DF9180
S11322D0CF910895DC0101C06D9341505040E0F767
S10922E00895F894FFCFFD
S10922E600005F0120006E
S9030000FC
